{
  "transactions": [
    {
      "hash": "0xb14e59fc4e27f98e3cd2bb6b2990c2494238ac2951e9922a9b23fc9b0304e167",
      "transactionType": "CREATE",
      "contractName": "TokenFaucet",
      "contractAddress": "0xa17a9f2cac7c8fc589da7d3de6ebdd9efd73729b",
      "function": null,
      "arguments": null,
      "transaction": {
        "from": "0x7fc771b0675de44c4ee9e8b40b24b7a4ee2804bc",
        "gas": "0x14fd61",
        "value": "0x0",
        "input": "0x6080806040523460755733156062575f8054336001600160a01b0319821681178355916001600160a01b03909116907f8be0079c531659141344cd1fd0a4f28419497f9722a3daafe3b4186f6b6457e09080a36001805561114c908161007a8239f35b631e4fbdf760e01b5f525f60045260245ffd5b5f80fdfe60806040526004361015610011575f80fd5b5f3560e01c80632797b7c514610dfa5780632ce175c714610dc457806332587f3914610d745780633528bee914610cea578063417a069814610cb25780635fa7b58414610b7857806367a5cd06146109d45780636e99d52f146109b75780636ea49b4814610821578063715018a6146107ca57806375151b631461078d5780638da5cb5b146107665780639bc5c50914610665578063af81c5b914610539578063b4b2a09914610302578063c6255626146102c0578063cf8c2bf11461027a578063d3c7c2c7146101b2578063ed147b2d1461017e5763f2fde38b146100f5575f80fd5b3461017a57602036600319011261017a5761010e610e81565b6101166110d0565b6001600160a01b03168015610167575f80546001600160a01b03198116831782556001600160a01b0316907f8be0079c531659141344cd1fd0a4f28419497f9722a3daafe3b4186f6b6457e09080a3005b631e4fbdf760e01b5f525f60045260245ffd5b5f80fd5b3461017a57604036600319011261017a5760206101aa61019c610e81565b6101a4610e97565b90611078565b604051908152f35b3461017a575f36600319011261017a576040518060206004549283815201809260045f527f8a35acfbc15ff81a39ae7d344fd709f28e8600b4aa8c65c6b64bfe7fe36bd19b905f5b81811061025b5750505081610210910382610f82565b604051918291602083019060208452518091526040830191905f5b818110610239575050500390f35b82516001600160a01b031684528594506020938401939092019160010161022b565b82546001600160a01b03168452602090930192600192830192016101fa565b3461017a57604036600319011261017a5760806102a6610298610e81565b6102a0610e97565b90610fe0565b916040519384521515602084015260408301526060820152f35b3461017a57602036600319011261017a5760043560045481101561017a576102e9602091610ede565b905460405160039290921b1c6001600160a01b03168152f35b3461017a57602036600319011261017a5760043567ffffffffffffffff811161017a57610333903690600401610ead565b9061033c6110f6565b5f5b82811061034b5760018055005b6001600160a01b03610366610361838686610fbc565b610fcc565b1690815f52600560205260ff60405f2054161561052657335f52600360205260405f20825f5260205261039d60405f205442610f0a565b6201518081106104f15750815f52600260205260405f2054916040516370a0823160e01b8152306004820152602081602481855afa90811561049b575f916104c0575b508381106104a65750335f81815260036020908152604080832085845282528083204290555163a9059cbb60e01b81526004810193909352602483018690529194919085906044908290865af193841561049b5760019461046f575b506040519081527ff4458b3654a6828dbfbf62984eec7cb0ece92e12a59e7f7bbb8a50234c129c6960203392a30161033e565b61048f9060203d8111610494575b6104878183610f82565b810190610fa4565b61043c565b503d61047d565b6040513d5f823e3d90fd5b838263e426a9db60e01b5f5260045260245260445260645ffd5b90506020813d82116104e9575b816104da60209383610f82565b8101031261017a5751866103e0565b3d91506104cd565b620151800362015180811161051257634263cbc360e01b5f5260045260245ffd5b634e487b7160e01b5f52601160045260245ffd5b506306439c6b60e01b5f5260045260245ffd5b3461017a57604036600319011261017a57610552610e81565b60243561055d6110d0565b6001600160a01b03821691821561065657811561064757825f52600560205260ff60405f205416610638576004549168010000000000000000831015610624576105f86020926105d48560017ff4c563a3ea86ff1f4275e8c207df0375a51963f2b831b7bf4da8be938d92876c9701600455610ede565b81546001600160a01b0393841660039290921b91821b9390911b1916919091179055565b835f526005825260405f20600160ff19825416179055835f52600282528060405f2055604051908152a2005b634e487b7160e01b5f52604160045260245ffd5b63c78e82ad60e01b5f5260045ffd5b63e55fb50960e01b5f5260045ffd5b630f58058360e11b5f5260045ffd5b3461017a57606036600319011261017a5761067e610e81565b6044356001600160a01b0381169160243583830361017a5761069e6110d0565b831561072d5760405163a9059cbb60e01b81526001600160a01b0393841660048201526024810182905291909216916020826044815f875af190811561049b577f892212fefec48d5ab9985161b9e69f149494b9970bd1981c3dbf712d63f0d59c92602092610712575b50604051908152a3005b61072890833d8511610494576104878183610f82565b610708565b60405162461bcd60e51b8152602060048201526011602482015270125b9d985b1a59081c9958da5c1a595b9d607a1b6044820152606490fd5b3461017a575f36600319011261017a575f546040516001600160a01b039091168152602090f35b3461017a57602036600319011261017a576001600160a01b036107ae610e81565b165f526005602052602060ff60405f2054166040519015158152f35b3461017a575f36600319011261017a576107e26110d0565b5f80546001600160a01b0319811682556001600160a01b03167f8be0079c531659141344cd1fd0a4f28419497f9722a3daafe3b4186f6b6457e08280a3005b3461017a57604036600319011261017a5760043567ffffffffffffffff811161017a57610852903690600401610ead565b60243567ffffffffffffffff811161017a57610872903690600401610ead565b9161087b6110d0565b82810361097a575f5b81811061088d57005b6001600160a01b036108a3610361838589610fbc565b165f52600560205260ff60405f2054161561094c576108c3818585610fbc565b351561064757806108d76001928686610fbc565b35828060a01b036108ec61036184878b610fbc565b165f52600260205260405f2055610907610361828589610fbc565b7f3a22865564a15e1d9be087fd90192483ce3d3e86d8784aba2dafd45f852212836020610935848989610fbc565b3592604051938452858060a01b031692a201610884565b6103619061095a9286610fbc565b6306439c6b60e01b5f9081526001600160a01b0391909116600452602490fd5b60405162461bcd60e51b8152602060048201526015602482015274082e4e4c2f240d8cadccee8d040dad2e6dac2e8c6d605b1b6044820152606490fd5b3461017a575f36600319011261017a576020604051620151808152f35b3461017a57602036600319011261017a576109ed610e81565b6109f56110f6565b6001600160a01b03165f8181526005602052604090205460ff1615610b6657335f52600360205260405f20815f52602052610a3460405f205442610f0a565b6201518081106104f15750805f52600260205260405f20546040516370a0823160e01b8152306004820152602081602481865afa90811561049b575f91610b34575b50818110610b1b5750335f81815260036020908152604080832086845282528083204290555163a9059cbb60e01b81526004810193909352602483018490529082906044908290875af1801561049b57610afe575b506040519081527ff4458b3654a6828dbfbf62984eec7cb0ece92e12a59e7f7bbb8a50234c129c6960203392a360018055005b610b169060203d602011610494576104878183610f82565b610acb565b9163e426a9db60e01b5f5260045260245260445260645ffd5b90506020813d602011610b5e575b81610b4f60209383610f82565b8101031261017a575183610a76565b3d9150610b42565b6306439c6b60e01b5f5260045260245ffd5b3461017a57602036600319011261017a57610b91610e81565b610b996110d0565b6001600160a01b03165f8181526005602052604090205460ff1615610b6657805f52600560205260405f2060ff198154169055805f5260026020525f60408120555f5b6004549081811015610cab5782610bf282610ede565b905460039190911b1c6001600160a01b031614610c13576001915001610bdc565b5f198201918211610512576105d4610c2d610c4593610ede565b905460039190911b1c6001600160a01b031691610ede565b6004548015610c97575f1901610c5a81610ede565b81549060018060a01b039060031b1b191690556004555b7f4c910b69fe65a61f7531b9c5042b2329ca7179c77290aa7e2eb3afa3c8511fd35f80a2005b634e487b7160e01b5f52603160045260245ffd5b5050610c71565b3461017a57602036600319011261017a576001600160a01b03610cd3610e81565b165f526002602052602060405f2054604051908152f35b3461017a57602036600319011261017a57602460206001600160a01b03610d0f610e81565b16604051928380926370a0823160e01b82523060048301525afa801561049b575f90610d41575b602090604051908152f35b506020813d602011610d6c575b81610d5b60209383610f82565b8101031261017a5760209051610d36565b3d9150610d4e565b3461017a57604036600319011261017a57610d8d610e81565b610d95610e97565b6001600160a01b039182165f908152600360209081526040808320949093168252928352819020549051908152f35b3461017a57604036600319011261017a576020610df0610de2610e81565b610dea610e97565b90610f17565b6040519015158152f35b3461017a57604036600319011261017a57610e13610e81565b60243590610e1f6110d0565b6001600160a01b03165f8181526005602052604090205490919060ff16156105265780156106475760207f3a22865564a15e1d9be087fd90192483ce3d3e86d8784aba2dafd45f8522128391835f52600282528060405f2055604051908152a2005b600435906001600160a01b038216820361017a57565b602435906001600160a01b038216820361017a57565b9181601f8401121561017a5782359167ffffffffffffffff831161017a576020808501948460051b01011161017a57565b600454811015610ef65760045f5260205f2001905f90565b634e487b7160e01b5f52603260045260245ffd5b9190820391821161051257565b6001600160a01b0382165f9081526005602052604090205460ff1615610f7c5760018060a01b03165f52600360205260405f209060018060a01b03165f5260205260405f20548015610f7657610f71620151809142610f0a565b101590565b50600190565b50505f90565b90601f8019910116810190811067ffffffffffffffff82111761062457604052565b9081602091031261017a5751801515810361017a5790565b9190811015610ef65760051b0190565b356001600160a01b038116810361017a5790565b6001600160a01b039081165f908152600360209081526040808320949093168083529381528282205460059091529190205490919060ff161561106e575f52600260205260405f20548115611065576110398242610f0a565b6201518081101561105b5762015180039162015180831161051257925f929190565b5090916001915f91565b90916001915f91565b50905f905f905f90565b60018060a01b03165f52600360205260405f209060018060a01b03165f5260205260405f205480156110cb576110ae9042610f0a565b620151808110156110cb5762015180036201518081116105125790565b505f90565b5f546001600160a01b031633036110e357565b63118cdaa760e01b5f523360045260245ffd5b600260015414611107576002600155565b633ee5aeb560e01b5f5260045ffdfea2646970667358221220fe2389a95f2e74e9fddcac3dc93fe57f5b3ba0bf8e84676a35b03dc0d7d0a66064736f6c634300081e0033",
        "nonce": "0x1c1",
        "chainId": "0xaa36a7"
      },
      "additionalContracts": [],
      "isFixedGasLimit": false
    },
    {
      "hash": "0x69c00e5234fbba56a39ef5f6d0ae6bf4513017afd56265e741ceb08454fac528",
      "transactionType": "CALL",
      "contractName": "TokenFaucet",
      "contractAddress": "0xa17a9f2cac7c8fc589da7d3de6ebdd9efd73729b",
      "function": "addToken(address,uint256)",
      "arguments": [
        "0xfDbF84D3CC3c7D2656d317a544ebc824E9c0301b",
        "2000000000000000000000"
      ],
      "transaction": {
        "from": "0x7fc771b0675de44c4ee9e8b40b24b7a4ee2804bc",
        "to": "0xa17a9f2cac7c8fc589da7d3de6ebdd9efd73729b",
        "gas": "0x26baf",
        "value": "0x0",
        "input": "0xaf81c5b9000000000000000000000000fdbf84d3cc3c7d2656d317a544ebc824e9c0301b00000000000000000000000000000000000000000000006c6b935b8bbd400000",
        "nonce": "0x1c2",
        "chainId": "0xaa36a7"
      },
      "additionalContracts": [],
      "isFixedGasLimit": false
    },
    {
      "hash": "0x3f73efaf36819d5f1a9417bd7de98f4813acac38289c7c1d2f50bd63c33145af",
      "transactionType": "CALL",
      "contractName": "TokenFaucet",
      "contractAddress": "0xa17a9f2cac7c8fc589da7d3de6ebdd9efd73729b",
      "function": "addToken(address,uint256)",
      "arguments": [
        "0x574501F4Ce1Cb0aA4D2966863ca6b83910743717",
        "2000000000000000000000"
      ],
      "transaction": {
        "from": "0x7fc771b0675de44c4ee9e8b40b24b7a4ee2804bc",
        "to": "0xa17a9f2cac7c8fc589da7d3de6ebdd9efd73729b",
        "gas": "0x20f6b",
        "value": "0x0",
        "input": "0xaf81c5b9000000000000000000000000574501f4ce1cb0aa4d2966863ca6b8391074371700000000000000000000000000000000000000000000006c6b935b8bbd400000",
        "nonce": "0x1c3",
        "chainId": "0xaa36a7"
      },
      "additionalContracts": [],
      "isFixedGasLimit": false
    },
    {
      "hash": "0xe1d10c9e6ef0ed3d570a4e22e136d3dd82472a39d5fd00fc02ca10734c13ae09",
      "transactionType": "CALL",
      "contractName": "TokenFaucet",
      "contractAddress": "0xa17a9f2cac7c8fc589da7d3de6ebdd9efd73729b",
      "function": "addToken(address,uint256)",
      "arguments": [
        "0xb9426d28209a5c5F77F74812A97f327E22628163",
        "2000000000000000000000"
      ],
      "transaction": {
        "from": "0x7fc771b0675de44c4ee9e8b40b24b7a4ee2804bc",
        "to": "0xa17a9f2cac7c8fc589da7d3de6ebdd9efd73729b",
        "gas": "0x20f6b",
        "value": "0x0",
        "input": "0xaf81c5b9000000000000000000000000b9426d28209a5c5f77f74812a97f327e2262816300000000000000000000000000000000000000000000006c6b935b8bbd400000",
        "nonce": "0x1c4",
        "chainId": "0xaa36a7"
      },
      "additionalContracts": [],
      "isFixedGasLimit": false
    },
    {
      "hash": "0xc06a52d7cb3fad15842e887b5624861e9dfc2e9e69dd87150cca2b30985947fa",
      "transactionType": "CALL",
      "contractName": "TokenFaucet",
      "contractAddress": "0xa17a9f2cac7c8fc589da7d3de6ebdd9efd73729b",
      "function": "addToken(address,uint256)",
      "arguments": [
        "0xBA16b15Eaac899A0FA409b71Bb8d9CE67F7AdacF",
        "500000000000000000"
      ],
      "transaction": {
        "from": "0x7fc771b0675de44c4ee9e8b40b24b7a4ee2804bc",
        "to": "0xa17a9f2cac7c8fc589da7d3de6ebdd9efd73729b",
        "gas": "0x20f5a",
        "value": "0x0",
        "input": "0xaf81c5b9000000000000000000000000ba16b15eaac899a0fa409b71bb8d9ce67f7adacf00000000000000000000000000000000000000000000000006f05b59d3b20000",
        "nonce": "0x1c5",
        "chainId": "0xaa36a7"
      },
      "additionalContracts": [],
      "isFixedGasLimit": false
    },
    {
      "hash": "0x1ddf88b2772d679079a3a36aaef03a4b21396f23369fb69007b08bb2a483c4dd",
      "transactionType": "CALL",
      "contractName": "TokenFaucet",
      "contractAddress": "0xa17a9f2cac7c8fc589da7d3de6ebdd9efd73729b",
      "function": "addToken(address,uint256)",
      "arguments": [
        "0x9F853254D864dBb98961D8Da7Fb4b5f7dC42623d",
        "100000000000000000"
      ],
      "transaction": {
        "from": "0x7fc771b0675de44c4ee9e8b40b24b7a4ee2804bc",
        "to": "0xa17a9f2cac7c8fc589da7d3de6ebdd9efd73729b",
        "gas": "0x20f5a",
        "value": "0x0",
        "input": "0xaf81c5b90000000000000000000000009f853254d864dbb98961d8da7fb4b5f7dc42623d000000000000000000000000000000000000000000000000016345785d8a0000",
        "nonce": "0x1c6",
        "chainId": "0xaa36a7"
      },
      "additionalContracts": [],
      "isFixedGasLimit": false
    },
    {
      "hash": "0xf89662ce435e3710f387a9c22b44858183142e017814c15a771e669c725e7645",
      "transactionType": "CALL",
      "contractName": "TokenFaucet",
      "contractAddress": "0xa17a9f2cac7c8fc589da7d3de6ebdd9efd73729b",
      "function": "addToken(address,uint256)",
      "arguments": [
        "0xf498F9355134d699bedf55F4efDd38f2860C46A4",
        "200000000000000000000"
      ],
      "transaction": {
        "from": "0x7fc771b0675de44c4ee9e8b40b24b7a4ee2804bc",
        "to": "0xa17a9f2cac7c8fc589da7d3de6ebdd9efd73729b",
        "gas": "0x20f6b",
        "value": "0x0",
        "input": "0xaf81c5b9000000000000000000000000f498f9355134d699bedf55f4efdd38f2860c46a400000000000000000000000000000000000000000000000ad78ebc5ac6200000",
        "nonce": "0x1c7",
        "chainId": "0xaa36a7"
      },
      "additionalContracts": [],
      "isFixedGasLimit": false
    },
    {
      "hash": "0x58a951b4021fe4a8600b2c5bf11fcc96ecf56cc12eae382169c6d613d500d721",
      "transactionType": "CALL",
      "contractName": "TokenFaucet",
      "contractAddress": "0xa17a9f2cac7c8fc589da7d3de6ebdd9efd73729b",
      "function": "addToken(address,uint256)",
      "arguments": [
        "0xA6D8c74003164f8230ce3978D986223260D773dd",
        "500000000000000000000"
      ],
      "transaction": {
        "from": "0x7fc771b0675de44c4ee9e8b40b24b7a4ee2804bc",
        "to": "0xa17a9f2cac7c8fc589da7d3de6ebdd9efd73729b",
        "gas": "0x20f6b",
        "value": "0x0",
        "input": "0xaf81c5b9000000000000000000000000a6d8c74003164f8230ce3978d986223260d773dd00000000000000000000000000000000000000000000001b1ae4d6e2ef500000",
        "nonce": "0x1c8",
        "chainId": "0xaa36a7"
      },
      "additionalContracts": [],
      "isFixedGasLimit": false
    },
    {
      "hash": "0x8783962dc2c719f3dbbc66312ee294767b1565cd2bd6a6c671f2a7ec2a55ad78",
      "transactionType": "CALL",
      "contractName": "MockERC20",
      "contractAddress": "0xfdbf84d3cc3c7d2656d317a544ebc824e9c0301b",
      "function": "mint(address,uint256)",
      "arguments": [
        "0xa17A9f2cAC7C8fC589dA7d3dE6ebdd9efD73729b",
        "200000000000000000000000"
      ],
      "transaction": {
        "from": "0x7fc771b0675de44c4ee9e8b40b24b7a4ee2804bc",
        "to": "0xfdbf84d3cc3c7d2656d317a544ebc824e9c0301b",
        "gas": "0x12fcc",
        "value": "0x0",
        "input": "0x40c10f19000000000000000000000000a17a9f2cac7c8fc589da7d3de6ebdd9efd73729b000000000000000000000000000000000000000000002a5a058fc295ed000000",
        "nonce": "0x1c9",
        "chainId": "0xaa36a7"
      },
      "additionalContracts": [],
      "isFixedGasLimit": false
    },
    {
      "hash": "0xd5c71e019d0e41de9dfe6de549736b3d2ed82da4411cf30eed9e439e9256e368",
      "transactionType": "CALL",
      "contractName": "MockERC20",
      "contractAddress": "0x574501f4ce1cb0aa4d2966863ca6b83910743717",
      "function": "mint(address,uint256)",
      "arguments": [
        "0xa17A9f2cAC7C8fC589dA7d3dE6ebdd9efD73729b",
        "200000000000000000000000"
      ],
      "transaction": {
        "from": "0x7fc771b0675de44c4ee9e8b40b24b7a4ee2804bc",
        "to": "0x574501f4ce1cb0aa4d2966863ca6b83910743717",
        "gas": "0x12fcc",
        "value": "0x0",
        "input": "0x40c10f19000000000000000000000000a17a9f2cac7c8fc589da7d3de6ebdd9efd73729b000000000000000000000000000000000000000000002a5a058fc295ed000000",
        "nonce": "0x1ca",
        "chainId": "0xaa36a7"
      },
      "additionalContracts": [],
      "isFixedGasLimit": false
    },
    {
      "hash": "0x9b4f0245e67341de63446fcfb3f2ae18f73fc0781fbade225cb7ddff4174add2",
      "transactionType": "CALL",
      "contractName": null,
      "contractAddress": "0xb9426d28209a5c5f77f74812a97f327e22628163",
      "function": "mint(address,uint256)",
      "arguments": [
        "0xa17A9f2cAC7C8fC589dA7d3dE6ebdd9efD73729b",
        "200000000000000000000000"
      ],
      "transaction": {
        "from": "0x7fc771b0675de44c4ee9e8b40b24b7a4ee2804bc",
        "to": "0xb9426d28209a5c5f77f74812a97f327e22628163",
        "gas": "0x12fcc",
        "value": "0x0",
        "input": "0x40c10f19000000000000000000000000a17a9f2cac7c8fc589da7d3de6ebdd9efd73729b000000000000000000000000000000000000000000002a5a058fc295ed000000",
        "nonce": "0x1cb",
        "chainId": "0xaa36a7"
      },
      "additionalContracts": [],
      "isFixedGasLimit": false
    },
    {
      "hash": "0x6f75de223abcd8455dd90099034c60141876ebd1d00e356656032637012f8d6e",
      "transactionType": "CALL",
      "contractName": null,
      "contractAddress": "0xba16b15eaac899a0fa409b71bb8d9ce67f7adacf",
      "function": "mint(address,uint256)",
      "arguments": [
        "0xa17A9f2cAC7C8fC589dA7d3dE6ebdd9efD73729b",
        "50000000000000000000"
      ],
      "transaction": {
        "from": "0x7fc771b0675de44c4ee9e8b40b24b7a4ee2804bc",
        "to": "0xba16b15eaac899a0fa409b71bb8d9ce67f7adacf",
        "gas": "0x12fcc",
        "value": "0x0",
        "input": "0x40c10f19000000000000000000000000a17a9f2cac7c8fc589da7d3de6ebdd9efd73729b000000000000000000000000000000000000000000000002b5e3af16b1880000",
        "nonce": "0x1cc",
        "chainId": "0xaa36a7"
      },
      "additionalContracts": [],
      "isFixedGasLimit": false
    },
    {
      "hash": "0x3ec8f0eae06bf38968efde5ed2aef266d90d4ced1c5e51e843f3839d5543b826",
      "transactionType": "CALL",
      "contractName": null,
      "contractAddress": "0x9f853254d864dbb98961d8da7fb4b5f7dc42623d",
      "function": "mint(address,uint256)",
      "arguments": [
        "0xa17A9f2cAC7C8fC589dA7d3dE6ebdd9efD73729b",
        "10000000000000000000"
      ],
      "transaction": {
        "from": "0x7fc771b0675de44c4ee9e8b40b24b7a4ee2804bc",
        "to": "0x9f853254d864dbb98961d8da7fb4b5f7dc42623d",
        "gas": "0x11eda",
        "value": "0x0",
        "input": "0x40c10f19000000000000000000000000a17a9f2cac7c8fc589da7d3de6ebdd9efd73729b0000000000000000000000000000000000000000000000008ac7230489e80000",
        "nonce": "0x1cd",
        "chainId": "0xaa36a7"
      },
      "additionalContracts": [],
      "isFixedGasLimit": false
    },
    {
      "hash": "0x3c7698030e569f2884ac68a709d7e9ffe2182a75dc9025b1fbd1b336e78fb798",
      "transactionType": "CALL",
      "contractName": null,
      "contractAddress": "0xf498f9355134d699bedf55f4efdd38f2860c46a4",
      "function": "mint(address,uint256)",
      "arguments": [
        "0xa17A9f2cAC7C8fC589dA7d3dE6ebdd9efD73729b",
        "20000000000000000000000"
      ],
      "transaction": {
        "from": "0x7fc771b0675de44c4ee9e8b40b24b7a4ee2804bc",
        "to": "0xf498f9355134d699bedf55f4efdd38f2860c46a4",
        "gas": "0x11efc",
        "value": "0x0",
        "input": "0x40c10f19000000000000000000000000a17a9f2cac7c8fc589da7d3de6ebdd9efd73729b00000000000000000000000000000000000000000000043c33c1937564800000",
        "nonce": "0x1ce",
        "chainId": "0xaa36a7"
      },
      "additionalContracts": [],
      "isFixedGasLimit": false
    },
    {
      "hash": "0x964bcbcb97116129a415e76de23f53034c2e0636ebe7fc9e042692af24d9f291",
      "transactionType": "CALL",
      "contractName": null,
      "contractAddress": "0xa6d8c74003164f8230ce3978d986223260d773dd",
      "function": "mint(address,uint256)",
      "arguments": [
        "0xa17A9f2cAC7C8fC589dA7d3dE6ebdd9efD73729b",
        "50000000000000000000000"
      ],
      "transaction": {
        "from": "0x7fc771b0675de44c4ee9e8b40b24b7a4ee2804bc",
        "to": "0xa6d8c74003164f8230ce3978d986223260d773dd",
        "gas": "0x11efc",
        "value": "0x0",
        "input": "0x40c10f19000000000000000000000000a17a9f2cac7c8fc589da7d3de6ebdd9efd73729b000000000000000000000000000000000000000000000a968163f0a57b400000",
        "nonce": "0x1cf",
        "chainId": "0xaa36a7"
      },
      "additionalContracts": [],
      "isFixedGasLimit": false
    }
  ],
  "receipts": [
    {
      "status": "0x1",
      "cumulativeGasUsed": "0xa196fe",
      "logs": [
        {
          "address": "0xa17a9f2cac7c8fc589da7d3de6ebdd9efd73729b",
          "topics": [
            "0x8be0079c531659141344cd1fd0a4f28419497f9722a3daafe3b4186f6b6457e0",
            "0x0000000000000000000000000000000000000000000000000000000000000000",
            "0x0000000000000000000000007fc771b0675de44c4ee9e8b40b24b7a4ee2804bc"
          ],
          "data": "0x",
          "blockHash": "0x4c577fc70d60fbb5857cef292220e1c82be2a24e7afd5b119df24ecdaeb78eaa",
          "blockNumber": "0x903a37",
          "blockTimestamp": "0x68f624dc",
          "transactionHash": "0xb14e59fc4e27f98e3cd2bb6b2990c2494238ac2951e9922a9b23fc9b0304e167",
          "transactionIndex": "0x35",
          "logIndex": "0x48",
          "removed": false
        }
      ],
      "logsBloom": "0x00000000000000000000000000000000000000000000000000800000000000000000000000000000000000010000000000000000000000000000000000000000000000000000000000000100000000000001000000000000000000000000000000000000020000000000000000000800000000000000000000000000000000400000000020000000001000000000000000000000000000000000000000000000000000000000000000000000000000000000000000400000000000000000000000000800000000000000000000000000000000000000000000000000000020000000000000000000000000000000000000000000000000000000000000000000",
      "type": "0x2",
      "transactionHash": "0xb14e59fc4e27f98e3cd2bb6b2990c2494238ac2951e9922a9b23fc9b0304e167",
      "transactionIndex": "0x35",
      "blockHash": "0x4c577fc70d60fbb5857cef292220e1c82be2a24e7afd5b119df24ecdaeb78eaa",
      "blockNumber": "0x903a37",
      "gasUsed": "0x10255f",
      "effectiveGasPrice": "0xf75ad",
      "from": "0x7fc771b0675de44c4ee9e8b40b24b7a4ee2804bc",
      "to": null,
      "contractAddress": "0xa17a9f2cac7c8fc589da7d3de6ebdd9efd73729b"
    },
    {
      "status": "0x1",
      "cumulativeGasUsed": "0xa357a2",
      "logs": [
        {
          "address": "0xa17a9f2cac7c8fc589da7d3de6ebdd9efd73729b",
          "topics": [
            "0xf4c563a3ea86ff1f4275e8c207df0375a51963f2b831b7bf4da8be938d92876c",
            "0x000000000000000000000000fdbf84d3cc3c7d2656d317a544ebc824e9c0301b"
          ],
          "data": "0x00000000000000000000000000000000000000000000006c6b935b8bbd400000",
          "blockHash": "0x4c577fc70d60fbb5857cef292220e1c82be2a24e7afd5b119df24ecdaeb78eaa",
          "blockNumber": "0x903a37",
          "blockTimestamp": "0x68f624dc",
          "transactionHash": "0x69c00e5234fbba56a39ef5f6d0ae6bf4513017afd56265e741ceb08454fac528",
          "transactionIndex": "0x36",
          "logIndex": "0x49",
          "removed": false
        }
      ],
      "logsBloom": "0x00000000000000000000000000000000000000000000000000000000000000000000000000000000000000010000000000000000000080000000000000000000000080000000100000000000000000000000000000000000000000000000000000000000000000000000000000000000000000000000000000000000000000000000000000000000000000000000000000000000000000000000000000000000000100200000000000000000000000000000000000400000000000000000000000000800000000000000000000000000000000000000000010000000000000000000000000000000000000000000000000000000000000000000000000000000",
      "type": "0x2",
      "transactionHash": "0x69c00e5234fbba56a39ef5f6d0ae6bf4513017afd56265e741ceb08454fac528",
      "transactionIndex": "0x36",
      "blockHash": "0x4c577fc70d60fbb5857cef292220e1c82be2a24e7afd5b119df24ecdaeb78eaa",
      "blockNumber": "0x903a37",
      "gasUsed": "0x1c0a4",
      "effectiveGasPrice": "0xf75ad",
      "from": "0x7fc771b0675de44c4ee9e8b40b24b7a4ee2804bc",
      "to": "0xa17a9f2cac7c8fc589da7d3de6ebdd9efd73729b",
      "contractAddress": null
    },
    {
      "status": "0x1",
      "cumulativeGasUsed": "0xa4d57a",
      "logs": [
        {
          "address": "0xa17a9f2cac7c8fc589da7d3de6ebdd9efd73729b",
          "topics": [
            "0xf4c563a3ea86ff1f4275e8c207df0375a51963f2b831b7bf4da8be938d92876c",
            "0x000000000000000000000000574501f4ce1cb0aa4d2966863ca6b83910743717"
          ],
          "data": "0x00000000000000000000000000000000000000000000006c6b935b8bbd400000",
          "blockHash": "0x4c577fc70d60fbb5857cef292220e1c82be2a24e7afd5b119df24ecdaeb78eaa",
          "blockNumber": "0x903a37",
          "blockTimestamp": "0x68f624dc",
          "transactionHash": "0x3f73efaf36819d5f1a9417bd7de98f4813acac38289c7c1d2f50bd63c33145af",
          "transactionIndex": "0x37",
          "logIndex": "0x4a",
          "removed": false
        }
      ],
      "logsBloom": "0x00000000000000000000000000000000000000000000000000000000000000000000000000000000000000010000000000000000000080000000000000000000000000000000100000000000000000000000000000000000000000000000000000000000000000000000000000000000000000000000000000000000000000000000000000000000004000000000000000000000000000000000000000000000000000000000000000000000000000000000000000400000000000000000000000000800000000000000000000000000000000000000000010000000000000000000000000080004000000000000000000000000000000000000000000000000",
      "type": "0x2",
      "transactionHash": "0x3f73efaf36819d5f1a9417bd7de98f4813acac38289c7c1d2f50bd63c33145af",
      "transactionIndex": "0x37",
      "blockHash": "0x4c577fc70d60fbb5857cef292220e1c82be2a24e7afd5b119df24ecdaeb78eaa",
      "blockNumber": "0x903a37",
      "gasUsed": "0x17dd8",
      "effectiveGasPrice": "0xf75ad",
      "from": "0x7fc771b0675de44c4ee9e8b40b24b7a4ee2804bc",
      "to": "0xa17a9f2cac7c8fc589da7d3de6ebdd9efd73729b",
      "contractAddress": null
    },
    {
      "status": "0x1",
      "cumulativeGasUsed": "0xa65352",
      "logs": [
        {
          "address": "0xa17a9f2cac7c8fc589da7d3de6ebdd9efd73729b",
          "topics": [
            "0xf4c563a3ea86ff1f4275e8c207df0375a51963f2b831b7bf4da8be938d92876c",
            "0x000000000000000000000000b9426d28209a5c5f77f74812a97f327e22628163"
          ],
          "data": "0x00000000000000000000000000000000000000000000006c6b935b8bbd400000",
          "blockHash": "0x4c577fc70d60fbb5857cef292220e1c82be2a24e7afd5b119df24ecdaeb78eaa",
          "blockNumber": "0x903a37",
          "blockTimestamp": "0x68f624dc",
          "transactionHash": "0xe1d10c9e6ef0ed3d570a4e22e136d3dd82472a39d5fd00fc02ca10734c13ae09",
          "transactionIndex": "0x38",
          "logIndex": "0x4b",
          "removed": false
        }
      ],
      "logsBloom": "0x00000000000000000000000000000000000000000000000000000000000000000000000000000000000000010000000000000000000080000000000000000000000000000000100000000000000000000000000000000000000000000000000000000000000000000000000000000000000000000000000000000000000000000000000000000000000000000000000000000000000000000000000000000000000000000000000000000000000000000000000000480000000000000000000000000800000000000000000000000100000000000000000010000000000000000000000000000000000000000000008000000000000000000000000000000000",
      "type": "0x2",
      "transactionHash": "0xe1d10c9e6ef0ed3d570a4e22e136d3dd82472a39d5fd00fc02ca10734c13ae09",
      "transactionIndex": "0x38",
      "blockHash": "0x4c577fc70d60fbb5857cef292220e1c82be2a24e7afd5b119df24ecdaeb78eaa",
      "blockNumber": "0x903a37",
      "gasUsed": "0x17dd8",
      "effectiveGasPrice": "0xf75ad",
      "from": "0x7fc771b0675de44c4ee9e8b40b24b7a4ee2804bc",
      "to": "0xa17a9f2cac7c8fc589da7d3de6ebdd9efd73729b",
      "contractAddress": null
    },
    {
      "status": "0x1",
      "cumulativeGasUsed": "0xa7d11e",
      "logs": [
        {
          "address": "0xa17a9f2cac7c8fc589da7d3de6ebdd9efd73729b",
          "topics": [
            "0xf4c563a3ea86ff1f4275e8c207df0375a51963f2b831b7bf4da8be938d92876c",
            "0x000000000000000000000000ba16b15eaac899a0fa409b71bb8d9ce67f7adacf"
          ],
          "data": "0x00000000000000000000000000000000000000000000000006f05b59d3b20000",
          "blockHash": "0x4c577fc70d60fbb5857cef292220e1c82be2a24e7afd5b119df24ecdaeb78eaa",
          "blockNumber": "0x903a37",
          "blockTimestamp": "0x68f624dc",
          "transactionHash": "0xc06a52d7cb3fad15842e887b5624861e9dfc2e9e69dd87150cca2b30985947fa",
          "transactionIndex": "0x39",
          "logIndex": "0x4c",
          "removed": false
        }
      ],
      "logsBloom": "0x00000000000000000000000000000000000000000000000000000000000000000000000000000000000000010000000000000000000080000000000000000000000000000000100000000000000000000000000000000000000000000000000000000000000000000000000000000000000008040000000000000000000000000000000000000000000000000000000000000000000000000000000000000000000000000000000000000000000000000000000000400000000000000000000000000800000000000000000000000000000000000000000010000000000000000000008000000000000000000000000000000000000000000000000000000000",
      "type": "0x2",
      "transactionHash": "0xc06a52d7cb3fad15842e887b5624861e9dfc2e9e69dd87150cca2b30985947fa",
      "transactionIndex": "0x39",
      "blockHash": "0x4c577fc70d60fbb5857cef292220e1c82be2a24e7afd5b119df24ecdaeb78eaa",
      "blockNumber": "0x903a37",
      "gasUsed": "0x17dcc",
      "effectiveGasPrice": "0xf75ad",
      "from": "0x7fc771b0675de44c4ee9e8b40b24b7a4ee2804bc",
      "to": "0xa17a9f2cac7c8fc589da7d3de6ebdd9efd73729b",
      "contractAddress": null
    },
    {
      "status": "0x1",
      "cumulativeGasUsed": "0xa94eea",
      "logs": [
        {
          "address": "0xa17a9f2cac7c8fc589da7d3de6ebdd9efd73729b",
          "topics": [
            "0xf4c563a3ea86ff1f4275e8c207df0375a51963f2b831b7bf4da8be938d92876c",
            "0x0000000000000000000000009f853254d864dbb98961d8da7fb4b5f7dc42623d"
          ],
          "data": "0x000000000000000000000000000000000000000000000000016345785d8a0000",
          "blockHash": "0x4c577fc70d60fbb5857cef292220e1c82be2a24e7afd5b119df24ecdaeb78eaa",
          "blockNumber": "0x903a37",
          "blockTimestamp": "0x68f624dc",
          "transactionHash": "0x1ddf88b2772d679079a3a36aaef03a4b21396f23369fb69007b08bb2a483c4dd",
          "transactionIndex": "0x3a",
          "logIndex": "0x4d",
          "removed": false
        }
      ],
      "logsBloom": "0x00000000000000000000000000000000000000000000000000000000000000000000000000000000000000010000000000000000000080000000000000000000000000000000100000000000020000000000000000000000000000000000000000000000000000000000000000000000000000000000000000000000000000000000000000000000000000000000000000000000000000000000000000000000000000000000000000000000000000000000000840400000000000000000000000000800000000000000000000000000000000000000000010000000000000000000000000000000000000000000000000000000000000000000000000000000",
      "type": "0x2",
      "transactionHash": "0x1ddf88b2772d679079a3a36aaef03a4b21396f23369fb69007b08bb2a483c4dd",
      "transactionIndex": "0x3a",
      "blockHash": "0x4c577fc70d60fbb5857cef292220e1c82be2a24e7afd5b119df24ecdaeb78eaa",
      "blockNumber": "0x903a37",
      "gasUsed": "0x17dcc",
      "effectiveGasPrice": "0xf75ad",
      "from": "0x7fc771b0675de44c4ee9e8b40b24b7a4ee2804bc",
      "to": "0xa17a9f2cac7c8fc589da7d3de6ebdd9efd73729b",
      "contractAddress": null
    },
    {
      "status": "0x1",
      "cumulativeGasUsed": "0xaaccc2",
      "logs": [
        {
          "address": "0xa17a9f2cac7c8fc589da7d3de6ebdd9efd73729b",
          "topics": [
            "0xf4c563a3ea86ff1f4275e8c207df0375a51963f2b831b7bf4da8be938d92876c",
            "0x000000000000000000000000f498f9355134d699bedf55f4efdd38f2860c46a4"
          ],
          "data": "0x00000000000000000000000000000000000000000000000ad78ebc5ac6200000",
          "blockHash": "0x4c577fc70d60fbb5857cef292220e1c82be2a24e7afd5b119df24ecdaeb78eaa",
          "blockNumber": "0x903a37",
          "blockTimestamp": "0x68f624dc",
          "transactionHash": "0xf89662ce435e3710f387a9c22b44858183142e017814c15a771e669c725e7645",
          "transactionIndex": "0x3b",
          "logIndex": "0x4e",
          "removed": false
        }
      ],
      "logsBloom": "0x00000000000000000000000000000000000000000000000000000000000000000000000000000000000000010000000000000000000080000000000000000000000000000000100000000000000000000000000000000002000000000000000000000000000000000000000000000000000000000000000000000000000000000000000000000000000000000000000000000000000000000000000000000000000000000000000000000000000000000000000000400000000000000000000000000800000000000000000000000080000000000000000010000000000000000080000000000000000000000000000000000000000000000000000000000000",
      "type": "0x2",
      "transactionHash": "0xf89662ce435e3710f387a9c22b44858183142e017814c15a771e669c725e7645",
      "transactionIndex": "0x3b",
      "blockHash": "0x4c577fc70d60fbb5857cef292220e1c82be2a24e7afd5b119df24ecdaeb78eaa",
      "blockNumber": "0x903a37",
      "gasUsed": "0x17dd8",
      "effectiveGasPrice": "0xf75ad",
      "from": "0x7fc771b0675de44c4ee9e8b40b24b7a4ee2804bc",
      "to": "0xa17a9f2cac7c8fc589da7d3de6ebdd9efd73729b",
      "contractAddress": null
    },
    {
      "status": "0x1",
      "cumulativeGasUsed": "0xac4a9a",
      "logs": [
        {
          "address": "0xa17a9f2cac7c8fc589da7d3de6ebdd9efd73729b",
          "topics": [
            "0xf4c563a3ea86ff1f4275e8c207df0375a51963f2b831b7bf4da8be938d92876c",
            "0x000000000000000000000000a6d8c74003164f8230ce3978d986223260d773dd"
          ],
          "data": "0x00000000000000000000000000000000000000000000001b1ae4d6e2ef500000",
          "blockHash": "0x4c577fc70d60fbb5857cef292220e1c82be2a24e7afd5b119df24ecdaeb78eaa",
          "blockNumber": "0x903a37",
          "blockTimestamp": "0x68f624dc",
          "transactionHash": "0x58a951b4021fe4a8600b2c5bf11fcc96ecf56cc12eae382169c6d613d500d721",
          "transactionIndex": "0x3c",
          "logIndex": "0x4f",
          "removed": false
        }
      ],
      "logsBloom": "0x00010000000000000000000000000000000000000000000000000000000000000000000000000000000000010000000000000000000080000000000000000000000000000000100000000000000000080000000000000000000000000000000000000000000000000000000000000000000000000000000000000000000000000000000000000000000000020000000000000000000000000000000000000000000000000000000000000000000000000000000000400000000000000000000000000800000000000000000000000000000000000000000010000000000000000000000000000000000000000000000000000000000000000000000000000000",
      "type": "0x2",
      "transactionHash": "0x58a951b4021fe4a8600b2c5bf11fcc96ecf56cc12eae382169c6d613d500d721",
      "transactionIndex": "0x3c",
      "blockHash": "0x4c577fc70d60fbb5857cef292220e1c82be2a24e7afd5b119df24ecdaeb78eaa",
      "blockNumber": "0x903a37",
      "gasUsed": "0x17dd8",
      "effectiveGasPrice": "0xf75ad",
      "from": "0x7fc771b0675de44c4ee9e8b40b24b7a4ee2804bc",
      "to": "0xa17a9f2cac7c8fc589da7d3de6ebdd9efd73729b",
      "contractAddress": null
    },
    {
      "status": "0x1",
      "cumulativeGasUsed": "0xad1a54",
      "logs": [
        {
          "address": "0xfdbf84d3cc3c7d2656d317a544ebc824e9c0301b",
          "topics": [
            "0xddf252ad1be2c89b69c2b068fc378daa952ba7f163c4a11628f55a4df523b3ef",
            "0x0000000000000000000000000000000000000000000000000000000000000000",
            "0x000000000000000000000000a17a9f2cac7c8fc589da7d3de6ebdd9efd73729b"
          ],
          "data": "0x000000000000000000000000000000000000000000002a5a058fc295ed000000",
          "blockHash": "0x4c577fc70d60fbb5857cef292220e1c82be2a24e7afd5b119df24ecdaeb78eaa",
          "blockNumber": "0x903a37",
          "blockTimestamp": "0x68f624dc",
          "transactionHash": "0x8783962dc2c719f3dbbc66312ee294767b1565cd2bd6a6c671f2a7ec2a55ad78",
          "transactionIndex": "0x3d",
          "logIndex": "0x50",
          "removed": false
        }
      ],
      "logsBloom": "0x00000000000000000000000000000000000000000000000000000000000000000000000000000000100002000020000000000000000001000000000000000000000000000000000000000008000000000000000000000000000000000000000000000000020000000000000000000800000000000000000000000010000000000000001000000000000000000000000000000000000000000000000000000000000000000000000000000000000000000000000000000000000000000000000000000002000000000000000000000000000000000000000000000000000020000000000000000000000000000000000000000001000000000000000000000000",
      "type": "0x2",
      "transactionHash": "0x8783962dc2c719f3dbbc66312ee294767b1565cd2bd6a6c671f2a7ec2a55ad78",
      "transactionIndex": "0x3d",
      "blockHash": "0x4c577fc70d60fbb5857cef292220e1c82be2a24e7afd5b119df24ecdaeb78eaa",
      "blockNumber": "0x903a37",
      "gasUsed": "0xcfba",
      "effectiveGasPrice": "0xf75ad",
      "from": "0x7fc771b0675de44c4ee9e8b40b24b7a4ee2804bc",
      "to": "0xfdbf84d3cc3c7d2656d317a544ebc824e9c0301b",
      "contractAddress": null
    },
    {
      "status": "0x1",
      "cumulativeGasUsed": "0xadea0e",
      "logs": [
        {
          "address": "0x574501f4ce1cb0aa4d2966863ca6b83910743717",
          "topics": [
            "0xddf252ad1be2c89b69c2b068fc378daa952ba7f163c4a11628f55a4df523b3ef",
            "0x0000000000000000000000000000000000000000000000000000000000000000",
            "0x000000000000000000000000a17a9f2cac7c8fc589da7d3de6ebdd9efd73729b"
          ],
          "data": "0x000000000000000000000000000000000000000000002a5a058fc295ed000000",
          "blockHash": "0x4c577fc70d60fbb5857cef292220e1c82be2a24e7afd5b119df24ecdaeb78eaa",
          "blockNumber": "0x903a37",
          "blockTimestamp": "0x68f624dc",
          "transactionHash": "0xd5c71e019d0e41de9dfe6de549736b3d2ed82da4411cf30eed9e439e9256e368",
          "transactionIndex": "0x3e",
          "logIndex": "0x51",
          "removed": false
        }
      ],
      "logsBloom": "0x00000000000000000000000000004000000000000000000008000000000000000000000000000000000000000020000000000000000000000000000000000000000000000000000000000008000000000000000000000000000000000000000000000000020000020000000000000800000000000000000000000010000000000000001000000000000000000000000000000000000000000000000000000000000000000000000000000000000000000000000000000000000000000000000000000002000000000000000000000000000000000000000000000000000020000000000000000000000000000000000000000001000000000000000000000000",
      "type": "0x2",
      "transactionHash": "0xd5c71e019d0e41de9dfe6de549736b3d2ed82da4411cf30eed9e439e9256e368",
      "transactionIndex": "0x3e",
      "blockHash": "0x4c577fc70d60fbb5857cef292220e1c82be2a24e7afd5b119df24ecdaeb78eaa",
      "blockNumber": "0x903a37",
      "gasUsed": "0xcfba",
      "effectiveGasPrice": "0xf75ad",
      "from": "0x7fc771b0675de44c4ee9e8b40b24b7a4ee2804bc",
      "to": "0x574501f4ce1cb0aa4d2966863ca6b83910743717",
      "contractAddress": null
    },
    {
      "status": "0x1",
      "cumulativeGasUsed": "0xaeb9c8",
      "logs": [
        {
          "address": "0xb9426d28209a5c5f77f74812a97f327e22628163",
          "topics": [
            "0xddf252ad1be2c89b69c2b068fc378daa952ba7f163c4a11628f55a4df523b3ef",
            "0x0000000000000000000000000000000000000000000000000000000000000000",
            "0x000000000000000000000000a17a9f2cac7c8fc589da7d3de6ebdd9efd73729b"
          ],
          "data": "0x000000000000000000000000000000000000000000002a5a058fc295ed000000",
          "blockHash": "0x4c577fc70d60fbb5857cef292220e1c82be2a24e7afd5b119df24ecdaeb78eaa",
          "blockNumber": "0x903a37",
          "blockTimestamp": "0x68f624dc",
          "transactionHash": "0x9b4f0245e67341de63446fcfb3f2ae18f73fc0781fbade225cb7ddff4174add2",
          "transactionIndex": "0x3f",
          "logIndex": "0x52",
          "removed": false
        }
      ],
      "logsBloom": "0x00000000000000000000000000000000000000000000000000000000000000000000000000000000000000000020000000000000000000000000000000000000000000000000000000000008000000000000000000000000000000000000000000000000020000000000000000000800000000000000000000000010000000000200001000000000000000000000000000000000000000000000000000000000000000000000000000000000040000000000000000000000000000000000000000000002000000000000000000000000000000000000000000000000000020000000000000000000000000000000000000000001000000004000000000000000",
      "type": "0x2",
      "transactionHash": "0x9b4f0245e67341de63446fcfb3f2ae18f73fc0781fbade225cb7ddff4174add2",
      "transactionIndex": "0x3f",
      "blockHash": "0x4c577fc70d60fbb5857cef292220e1c82be2a24e7afd5b119df24ecdaeb78eaa",
      "blockNumber": "0x903a37",
      "gasUsed": "0xcfba",
      "effectiveGasPrice": "0xf75ad",
      "from": "0x7fc771b0675de44c4ee9e8b40b24b7a4ee2804bc",
      "to": "0xb9426d28209a5c5f77f74812a97f327e22628163",
      "contractAddress": null
    },
    {
      "status": "0x1",
      "cumulativeGasUsed": "0xaf8982",
      "logs": [
        {
          "address": "0xba16b15eaac899a0fa409b71bb8d9ce67f7adacf",
          "topics": [
            "0xddf252ad1be2c89b69c2b068fc378daa952ba7f163c4a11628f55a4df523b3ef",
            "0x0000000000000000000000000000000000000000000000000000000000000000",
            "0x000000000000000000000000a17a9f2cac7c8fc589da7d3de6ebdd9efd73729b"
          ],
          "data": "0x000000000000000000000000000000000000000000000002b5e3af16b1880000",
          "blockHash": "0x4c577fc70d60fbb5857cef292220e1c82be2a24e7afd5b119df24ecdaeb78eaa",
          "blockNumber": "0x903a37",
          "blockTimestamp": "0x68f624dc",
          "transactionHash": "0x6f75de223abcd8455dd90099034c60141876ebd1d00e356656032637012f8d6e",
          "transactionIndex": "0x40",
          "logIndex": "0x53",
          "removed": false
        }
      ],
      "logsBloom": "0x00000000000000000000000000000000000000000000080000000000000000000000000000000000000000000020000000000000000000000000000000000000000000000000000000000008000000000000000000000000000000000000000000000000020000000000020000000800000000000000000000000010000000000000001000000000000000000000000000000000000000000000000000000000000000000000000000000000000000000000000000000000000000000000000000000002000000000000000000000000000000000000000000000000000020000000000000000000000000200000000000000001000000000000000000000000",
      "type": "0x2",
      "transactionHash": "0x6f75de223abcd8455dd90099034c60141876ebd1d00e356656032637012f8d6e",
      "transactionIndex": "0x40",
      "blockHash": "0x4c577fc70d60fbb5857cef292220e1c82be2a24e7afd5b119df24ecdaeb78eaa",
      "blockNumber": "0x903a37",
      "gasUsed": "0xcfba",
      "effectiveGasPrice": "0xf75ad",
      "from": "0x7fc771b0675de44c4ee9e8b40b24b7a4ee2804bc",
      "to": "0xba16b15eaac899a0fa409b71bb8d9ce67f7adacf",
      "contractAddress": null
    },
    {
      "status": "0x1",
      "cumulativeGasUsed": "0xb05930",
      "logs": [
        {
          "address": "0x9f853254d864dbb98961d8da7fb4b5f7dc42623d",
          "topics": [
            "0xddf252ad1be2c89b69c2b068fc378daa952ba7f163c4a11628f55a4df523b3ef",
            "0x0000000000000000000000000000000000000000000000000000000000000000",
            "0x000000000000000000000000a17a9f2cac7c8fc589da7d3de6ebdd9efd73729b"
          ],
          "data": "0x0000000000000000000000000000000000000000000000008ac7230489e80000",
          "blockHash": "0x4c577fc70d60fbb5857cef292220e1c82be2a24e7afd5b119df24ecdaeb78eaa",
          "blockNumber": "0x903a37",
          "blockTimestamp": "0x68f624dc",
          "transactionHash": "0x3ec8f0eae06bf38968efde5ed2aef266d90d4ced1c5e51e843f3839d5543b826",
          "transactionIndex": "0x41",
          "logIndex": "0x54",
          "removed": false
        }
      ],
      "logsBloom": "0x00000000000000000000000000000000000000000000000200000000000000000000000000000000000000000020000000000000000000000000000000000000000000000000000000000008000000000000000000000000000000000000000000000000020000020000000000000800000000000000000000000010000000000000001000000000000000000000000000000000000000000000000000000000000000000000000000000000000000000000000000000000000000000000000000000002000000000000000000000000000000000000000000000000000020000000000000000000000000000008000000000001000000000000000000000000",
      "type": "0x2",
      "transactionHash": "0x3ec8f0eae06bf38968efde5ed2aef266d90d4ced1c5e51e843f3839d5543b826",
      "transactionIndex": "0x41",
      "blockHash": "0x4c577fc70d60fbb5857cef292220e1c82be2a24e7afd5b119df24ecdaeb78eaa",
      "blockNumber": "0x903a37",
      "gasUsed": "0xcfae",
      "effectiveGasPrice": "0xf75ad",
      "from": "0x7fc771b0675de44c4ee9e8b40b24b7a4ee2804bc",
      "to": "0x9f853254d864dbb98961d8da7fb4b5f7dc42623d",
      "contractAddress": null
    },
    {
      "status": "0x1",
      "cumulativeGasUsed": "0xb128f6",
      "logs": [
        {
          "address": "0xf498f9355134d699bedf55f4efdd38f2860c46a4",
          "topics": [
            "0xddf252ad1be2c89b69c2b068fc378daa952ba7f163c4a11628f55a4df523b3ef",
            "0x0000000000000000000000000000000000000000000000000000000000000000",
            "0x000000000000000000000000a17a9f2cac7c8fc589da7d3de6ebdd9efd73729b"
          ],
          "data": "0x00000000000000000000000000000000000000000000043c33c1937564800000",
          "blockHash": "0x4c577fc70d60fbb5857cef292220e1c82be2a24e7afd5b119df24ecdaeb78eaa",
          "blockNumber": "0x903a37",
          "blockTimestamp": "0x68f624dc",
          "transactionHash": "0x3c7698030e569f2884ac68a709d7e9ffe2182a75dc9025b1fbd1b336e78fb798",
          "transactionIndex": "0x42",
          "logIndex": "0x55",
          "removed": false
        }
      ],
      "logsBloom": "0x00000000000000800000000000000000000000000000000000000000000000000000000000000000000000000020000000000000000000000000000000000000000000000000000000000008000000000000000000000000000000000000000000000000020000000000000000000800000000000000000000000010000000000000001000000000000000000000000000000000000000000000000000000000000000000000000000000000000000000000000000000000000000000000000000000002000040000000000000000000000000000000000000000000000020000000000000000000000000000000020000000001000000000000000000000000",
      "type": "0x2",
      "transactionHash": "0x3c7698030e569f2884ac68a709d7e9ffe2182a75dc9025b1fbd1b336e78fb798",
      "transactionIndex": "0x42",
      "blockHash": "0x4c577fc70d60fbb5857cef292220e1c82be2a24e7afd5b119df24ecdaeb78eaa",
      "blockNumber": "0x903a37",
      "gasUsed": "0xcfc6",
      "effectiveGasPrice": "0xf75ad",
      "from": "0x7fc771b0675de44c4ee9e8b40b24b7a4ee2804bc",
      "to": "0xf498f9355134d699bedf55f4efdd38f2860c46a4",
      "contractAddress": null
    },
    {
      "status": "0x1",
      "cumulativeGasUsed": "0xb1f8bc",
      "logs": [
        {
          "address": "0xa6d8c74003164f8230ce3978d986223260d773dd",
          "topics": [
            "0xddf252ad1be2c89b69c2b068fc378daa952ba7f163c4a11628f55a4df523b3ef",
            "0x0000000000000000000000000000000000000000000000000000000000000000",
            "0x000000000000000000000000a17a9f2cac7c8fc589da7d3de6ebdd9efd73729b"
          ],
          "data": "0x000000000000000000000000000000000000000000000a968163f0a57b400000",
          "blockHash": "0x4c577fc70d60fbb5857cef292220e1c82be2a24e7afd5b119df24ecdaeb78eaa",
          "blockNumber": "0x903a37",
          "blockTimestamp": "0x68f624dc",
          "transactionHash": "0x964bcbcb97116129a415e76de23f53034c2e0636ebe7fc9e042692af24d9f291",
          "transactionIndex": "0x43",
          "logIndex": "0x56",
          "removed": false
        }
      ],
      "logsBloom": "0x00000000000000000000000000000000000000000000000000000000000000000000000000000000000000000020000000000000000000000000001000000000000000000000000000000008000000000000000000000000000000000000000000000000020000000000000000000800000000000000000000000010000000000000001000000000000000000000000000000000000000000000000000000000000000000000000000000000000000000000000220000000000000000000000000000002000000000000000000000000000000000000000000000000000020000000000000000000000000000000000000000001000000000000000000000000",
      "type": "0x2",
      "transactionHash": "0x964bcbcb97116129a415e76de23f53034c2e0636ebe7fc9e042692af24d9f291",
      "transactionIndex": "0x43",
      "blockHash": "0x4c577fc70d60fbb5857cef292220e1c82be2a24e7afd5b119df24ecdaeb78eaa",
      "blockNumber": "0x903a37",
      "gasUsed": "0xcfc6",
      "effectiveGasPrice": "0xf75ad",
      "from": "0x7fc771b0675de44c4ee9e8b40b24b7a4ee2804bc",
      "to": "0xa6d8c74003164f8230ce3978d986223260d773dd",
      "contractAddress": null
    }
  ],
  "libraries": [],
  "pending": [],
  "returns": {},
  "timestamp": 1760961761661,
  "chain": 11155111,
  "commit": "424cb44"
}