{
  "transactions": [
    {
      "hash": "0x067856c0b1289e5ad2fa245f816ffc91ce9883bc4af53d02f0e733aa00d64933",
      "transactionType": "CREATE",
      "contractName": "PriceOracle",
      "contractAddress": "0xa1cece341889743b64446b6373d157360b8f6d8f",
      "function": null,
      "arguments": null,
      "transaction": {
        "from": "0x7fc771b0675de44c4ee9e8b40b24b7a4ee2804bc",
        "gas": "0xa6712",
        "value": "0x0",
        "input": "0x608080604052346026575f80546001600160a01b0319163317905561081d908161002b8239f35b5f80fdfe60806040526004361015610011575f80fd5b5f3560e01c806316345f18146105dd57806318a5d2dc146105505780635b6cca80146100ff5780635dc0e7f61461048e5780637215b0bf14610472578063725e6f0a1461036757806376e11286146102c65780638da5cb5b1461029f57806392aeb53a1461013f5780639dcb511a146100ff5763f2fde38b14610092575f80fd5b346100fb5760203660031901126100fb576100ab610611565b5f54906001600160a01b03821633036100ec576001600160a01b03169081156100dd576001600160a01b031916175f55005b63e6c4247b60e01b5f5260045ffd5b635fc483c560e01b5f5260045ffd5b5f80fd5b346100fb5760203660031901126100fb576001600160a01b03610120610611565b165f526001602052602060018060a01b0360405f205416604051908152f35b346100fb5760403660031901126100fb5760043567ffffffffffffffff81116100fb57610170903690600401610627565b60243567ffffffffffffffff81116100fb57610190903690600401610627565b5f549091906001600160a01b031633036100ec578183036100dd575f5b8381106101b657005b6001600160a01b036101d16101cc8387896107af565b6107d3565b16158015610281575b6100dd57806101ef6101cc60019386866107af565b828060a01b036102036101cc84898b6107af565b165f528260205260405f2090838060a01b03166bffffffffffffffffffffffff60a01b82541617905561023a6101cc8287896107af565b828060a01b0361024e6101cc8488886107af565b1690838060a01b03167fa8abe0398416476db5b05737cd4da3b3cbde5012d978a6a6c3fd49d3217535365f80a3016101ad565b506001600160a01b036102986101cc8386866107af565b16156101da565b346100fb575f3660031901126100fb575f546040516001600160a01b039091168152602090f35b346100fb5760403660031901126100fb576102df610611565b6024356001600160a01b03811691908290036100fb575f546001600160a01b031633036100ec576001600160a01b03168015801561035f575b6100dd575f81815260016020526040812080546001600160a01b031916841790557fa8abe0398416476db5b05737cd4da3b3cbde5012d978a6a6c3fd49d3217535369080a3005b508115610318565b346100fb5760203660031901126100fb576001600160a01b03610388610611565b165f908152600160205260409020546001600160a01b031680156104635760a060049160405192838092633fabe5a360e21b82525afa908115610458575f905f925f915f905f92610420575b505f851315610412576040805169ffffffffffffffffffff95861681526020810196909652850192909252606084019190915216608082015260a090f35b62bfc92160e01b5f5260045ffd5b9350505050610447915060a03d60a011610451575b61043f8183610658565b8101906106a5565b92939290856103d4565b503d610435565b6040513d5f823e3d90fd5b637e68a04560e01b5f5260045ffd5b346100fb575f3660031901126100fb576020604051610e108152f35b346100fb5760403660031901126100fb576104a7610611565b6024359069ffffffffffffffffffff82168092036100fb576001600160a01b039081165f90815260016020526040902054169081156104635760a090602460405180948193639a6fc8f560e01b835260048301525afa908115610458575f905f925f915f905f9261042057505f851315610412576040805169ffffffffffffffffffff95861681526020810196909652850192909252606084019190915216608082015260a090f35b346100fb5760603660031901126100fb57610569610611565b602435906044359060ff82168092036100fb57610585906106da565b50918281029281840414901517156105c957604d81116105c957600a0a9081156105b55760209160405191048152f35b634e487b7160e01b5f52601260045260245ffd5b634e487b7160e01b5f52601160045260245ffd5b346100fb5760203660031901126100fb57604060ff6106026105fd610611565b6106da565b83519182529091166020820152f35b600435906001600160a01b03821682036100fb57565b9181601f840112156100fb5782359167ffffffffffffffff83116100fb576020808501948460051b0101116100fb57565b90601f8019910116810190811067ffffffffffffffff82111761067a57604052565b634e487b7160e01b5f52604160045260245ffd5b519069ffffffffffffffffffff821682036100fb57565b908160a09103126100fb576106b98161068e565b916020820151916040810151916106d760806060840151930161068e565b90565b6001600160a01b039081165f908152600160205260409020541690811561046357604051633fabe5a360e21b815260a081600481865afa908115610458575f9161078b575b505f811315610412576020600491936040519283809263313ce56760e01b82525afa908115610458575f91610752575090565b90506020813d602011610783575b8161076d60209383610658565b810103126100fb575160ff811681036100fb5790565b3d9150610760565b6107a4915060a03d60a0116104515761043f8183610658565b50505090505f61071f565b91908110156107bf5760051b0190565b634e487b7160e01b5f52603260045260245ffd5b356001600160a01b03811681036100fb579056fea264697066735822122069d046b645d502f2f5d14244c68ebf468a69346d2152afb607c91737d3dcb3b064736f6c634300081e0033",
        "nonce": "0x184",
        "chainId": "0xaa36a7"
      },
      "additionalContracts": [],
      "isFixedGasLimit": false
    },
    {
      "hash": "0x3005c4389110b237b02a2eef65f3f85ab6eba202bfe8e28a9548d8f6def8aba4",
      "transactionType": "CALL",
      "contractName": "PriceOracle",
      "contractAddress": "0xa1cece341889743b64446b6373d157360b8f6d8f",
      "function": "setPriceFeed(address,address)",
      "arguments": [
        "0xa513E6E4b8f2a923D98304ec87F64353C4D5C853",
        "0x694AA1769357215DE4FAC081bf1f309aDC325306"
      ],
      "transaction": {
        "from": "0x7fc771b0675de44c4ee9e8b40b24b7a4ee2804bc",
        "to": "0xa1cece341889743b64446b6373d157360b8f6d8f",
        "gas": "0x112d4",
        "value": "0x0",
        "input": "0x76e11286000000000000000000000000a513e6e4b8f2a923d98304ec87f64353c4d5c853000000000000000000000000694aa1769357215de4fac081bf1f309adc325306",
        "nonce": "0x185",
        "chainId": "0xaa36a7"
      },
      "additionalContracts": [],
      "isFixedGasLimit": false
    },
    {
      "hash": "0x0558a87a6afe249d812c1687a404992e8e86bfcf0eba7928303f6fa3150746ca",
      "transactionType": "CALL",
      "contractName": "PriceOracle",
      "contractAddress": "0xa1cece341889743b64446b6373d157360b8f6d8f",
      "function": "setPriceFeed(address,address)",
      "arguments": [
        "0x2279B7A0a67DB372996a5FaB50D91eAA73d2eBe6",
        "0x1b44F3514812d835EB1BDB0acB33d3fA3351Ee43"
      ],
      "transaction": {
        "from": "0x7fc771b0675de44c4ee9e8b40b24b7a4ee2804bc",
        "to": "0xa1cece341889743b64446b6373d157360b8f6d8f",
        "gas": "0x112d4",
        "value": "0x0",
        "input": "0x76e112860000000000000000000000002279b7a0a67db372996a5fab50d91eaa73d2ebe60000000000000000000000001b44f3514812d835eb1bdb0acb33d3fa3351ee43",
        "nonce": "0x186",
        "chainId": "0xaa36a7"
      },
      "additionalContracts": [],
      "isFixedGasLimit": false
    },
    {
      "hash": "0x690716c08265a286843073efd569d7e39b3ba8f77af00cba1948d50e063409f7",
      "transactionType": "CALL",
      "contractName": "PriceOracle",
      "contractAddress": "0xa1cece341889743b64446b6373d157360b8f6d8f",
      "function": "setPriceFeed(address,address)",
      "arguments": [
        "0x8A791620dd6260079BF849Dc5567aDC3F2FdC318",
        "0xc59E3633BAAC79493d908e63626716e204A45EdF"
      ],
      "transaction": {
        "from": "0x7fc771b0675de44c4ee9e8b40b24b7a4ee2804bc",
        "to": "0xa1cece341889743b64446b6373d157360b8f6d8f",
        "gas": "0x112d4",
        "value": "0x0",
        "input": "0x76e112860000000000000000000000008a791620dd6260079bf849dc5567adc3f2fdc318000000000000000000000000c59e3633baac79493d908e63626716e204a45edf",
        "nonce": "0x187",
        "chainId": "0xaa36a7"
      },
      "additionalContracts": [],
      "isFixedGasLimit": false
    },
    {
      "hash": "0x06886f0c8c724ea69edb36499418fae8db4472339236392771b3a9fdcbae7904",
      "transactionType": "CALL",
      "contractName": "PriceOracle",
      "contractAddress": "0xa1cece341889743b64446b6373d157360b8f6d8f",
      "function": "setPriceFeed(address,address)",
      "arguments": [
        "0xDc64a140Aa3E981100a9becA4E685f962f0cF6C9",
        "0xA2F78ab2355fe2f984D808B5CeE7FD0A93D5270E"
      ],
      "transaction": {
        "from": "0x7fc771b0675de44c4ee9e8b40b24b7a4ee2804bc",
        "to": "0xa1cece341889743b64446b6373d157360b8f6d8f",
        "gas": "0x1037e",
        "value": "0x0",
        "input": "0x76e11286000000000000000000000000dc64a140aa3e981100a9beca4e685f962f0cf6c9000000000000000000000000a2f78ab2355fe2f984d808b5cee7fd0a93d5270e",
        "nonce": "0x188",
        "chainId": "0xaa36a7"
      },
      "additionalContracts": [],
      "isFixedGasLimit": false
    },
    {
      "hash": "0x1a1e4da0d80d6e122d098bab0d32222595d1a2415b8a9c52392d68aa2e8bfe90",
      "transactionType": "CALL",
      "contractName": "PriceOracle",
      "contractAddress": "0xa1cece341889743b64446b6373d157360b8f6d8f",
      "function": "setPriceFeed(address,address)",
      "arguments": [
        "0x5FC8d32690cc91D4c39d9d3abcBD16989F875707",
        "0xA2F78ab2355fe2f984D808B5CeE7FD0A93D5270E"
      ],
      "transaction": {
        "from": "0x7fc771b0675de44c4ee9e8b40b24b7a4ee2804bc",
        "to": "0xa1cece341889743b64446b6373d157360b8f6d8f",
        "gas": "0x112d4",
        "value": "0x0",
        "input": "0x76e112860000000000000000000000005fc8d32690cc91d4c39d9d3abcbd16989f875707000000000000000000000000a2f78ab2355fe2f984d808b5cee7fd0a93d5270e",
        "nonce": "0x189",
        "chainId": "0xaa36a7"
      },
      "additionalContracts": [],
      "isFixedGasLimit": false
    },
    {
      "hash": "0x43dd7233412c5fcb0e84da46e51276136d3db7d223513c1525e409fb2079435b",
      "transactionType": "CALL",
      "contractName": "PriceOracle",
      "contractAddress": "0xa1cece341889743b64446b6373d157360b8f6d8f",
      "function": "setPriceFeed(address,address)",
      "arguments": [
        "0x0165878A594ca255338adfa4d48449f69242Eb8F",
        "0x14866185B1962B63C3Ea9E03Bc1da838bab34C19"
      ],
      "transaction": {
        "from": "0x7fc771b0675de44c4ee9e8b40b24b7a4ee2804bc",
        "to": "0xa1cece341889743b64446b6373d157360b8f6d8f",
        "gas": "0x112d4",
        "value": "0x0",
        "input": "0x76e112860000000000000000000000000165878a594ca255338adfa4d48449f69242eb8f00000000000000000000000014866185b1962b63c3ea9e03bc1da838bab34c19",
        "nonce": "0x18a",
        "chainId": "0xaa36a7"
      },
      "additionalContracts": [],
      "isFixedGasLimit": false
    }
  ],
  "receipts": [
    {
      "status": "0x1",
      "cumulativeGasUsed": "0x9c627b",
      "logs": [],
      "logsBloom": "0x00000000000000000000000000000000000000000000000000000000000000000000000000000000000000000000000000000000000000000000000000000000000000000000000000000000000000000000000000000000000000000000000000000000000000000000000000000000000000000000000000000000000000000000000000000000000000000000000000000000000000000000000000000000000000000000000000000000000000000000000000000000000000000000000000000000000000000000000000000000000000000000000000000000000000000000000000000000000000000000000000000000000000000000000000000000",
      "type": "0x2",
      "transactionHash": "0x067856c0b1289e5ad2fa245f816ffc91ce9883bc4af53d02f0e733aa00d64933",
      "transactionIndex": "0x4b",
      "blockHash": "0xb5227c5ebdfc8ccfc1f62f9699f3004da2ba3cdd51fc0144c32c131183cae65a",
      "blockNumber": "0x9039e4",
      "gasUsed": "0x80084",
      "effectiveGasPrice": "0xf424a",
      "from": "0x7fc771b0675de44c4ee9e8b40b24b7a4ee2804bc",
      "to": null,
      "contractAddress": "0xa1cece341889743b64446b6373d157360b8f6d8f"
    },
    {
      "status": "0x1",
      "cumulativeGasUsed": "0x9d1e66",
      "logs": [
        {
          "address": "0xa1cece341889743b64446b6373d157360b8f6d8f",
          "topics": [
            "0xa8abe0398416476db5b05737cd4da3b3cbde5012d978a6a6c3fd49d321753536",
            "0x000000000000000000000000a513e6e4b8f2a923d98304ec87f64353c4d5c853",
            "0x000000000000000000000000694aa1769357215de4fac081bf1f309adc325306"
          ],
          "data": "0x",
          "blockHash": "0xb5227c5ebdfc8ccfc1f62f9699f3004da2ba3cdd51fc0144c32c131183cae65a",
          "blockNumber": "0x9039e4",
          "blockTimestamp": "0x68f620bc",
          "transactionHash": "0x3005c4389110b237b02a2eef65f3f85ab6eba202bfe8e28a9548d8f6def8aba4",
          "transactionIndex": "0x4c",
          "logIndex": "0x96",
          "removed": false
        }
      ],
      "logsBloom": "0x00000000000000000000000000400000000000000000000000000000000000000000000000000000000000002000000000000000000000000000000000000000000000000080000000000000000000000000000000008000000000000000000000000000000000000000000000000000000000000000000000000400000000000000000000000000200000000000000000000000000000000000000000000000000000000000000000000000000000000000000000000000000000000001000000000000000400000080000000000000000000000000000000000000000000000000000000000000000000000801000000000000000000000000000002000000",
      "type": "0x2",
      "transactionHash": "0x3005c4389110b237b02a2eef65f3f85ab6eba202bfe8e28a9548d8f6def8aba4",
      "transactionIndex": "0x4c",
      "blockHash": "0xb5227c5ebdfc8ccfc1f62f9699f3004da2ba3cdd51fc0144c32c131183cae65a",
      "blockNumber": "0x9039e4",
      "gasUsed": "0xbbeb",
      "effectiveGasPrice": "0xf424a",
      "from": "0x7fc771b0675de44c4ee9e8b40b24b7a4ee2804bc",
      "to": "0xa1cece341889743b64446b6373d157360b8f6d8f",
      "contractAddress": null
    },
    {
      "status": "0x1",
      "cumulativeGasUsed": "0x9dda51",
      "logs": [
        {
          "address": "0xa1cece341889743b64446b6373d157360b8f6d8f",
          "topics": [
            "0xa8abe0398416476db5b05737cd4da3b3cbde5012d978a6a6c3fd49d321753536",
            "0x0000000000000000000000002279b7a0a67db372996a5fab50d91eaa73d2ebe6",
            "0x0000000000000000000000001b44f3514812d835eb1bdb0acb33d3fa3351ee43"
          ],
          "data": "0x",
          "blockHash": "0xb5227c5ebdfc8ccfc1f62f9699f3004da2ba3cdd51fc0144c32c131183cae65a",
          "blockNumber": "0x9039e4",
          "blockTimestamp": "0x68f620bc",
          "transactionHash": "0x0558a87a6afe249d812c1687a404992e8e86bfcf0eba7928303f6fa3150746ca",
          "transactionIndex": "0x4d",
          "logIndex": "0x97",
          "removed": false
        }
      ],
      "logsBloom": "0x00000000000000000000000010000000000000000000000000000000000000000000000000000000000000002000000000000000004000000000000000000000000000000080000000000000000000000000000000000000000000000000000000000000000000000000000000000000000000000000000000000400000000000000000000000000200000000000008000000000000000000000000000000000000000000000000000100000000000000000000000000000000000000000000000000000000400000080000000000000000000000000001000000000000000000000000000000000000000000001000000000000000000000000000000000000",
      "type": "0x2",
      "transactionHash": "0x0558a87a6afe249d812c1687a404992e8e86bfcf0eba7928303f6fa3150746ca",
      "transactionIndex": "0x4d",
      "blockHash": "0xb5227c5ebdfc8ccfc1f62f9699f3004da2ba3cdd51fc0144c32c131183cae65a",
      "blockNumber": "0x9039e4",
      "gasUsed": "0xbbeb",
      "effectiveGasPrice": "0xf424a",
      "from": "0x7fc771b0675de44c4ee9e8b40b24b7a4ee2804bc",
      "to": "0xa1cece341889743b64446b6373d157360b8f6d8f",
      "contractAddress": null
    },
    {
      "status": "0x1",
      "cumulativeGasUsed": "0x9e963c",
      "logs": [
        {
          "address": "0xa1cece341889743b64446b6373d157360b8f6d8f",
          "topics": [
            "0xa8abe0398416476db5b05737cd4da3b3cbde5012d978a6a6c3fd49d321753536",
            "0x0000000000000000000000008a791620dd6260079bf849dc5567adc3f2fdc318",
            "0x000000000000000000000000c59e3633baac79493d908e63626716e204a45edf"
          ],
          "data": "0x",
          "blockHash": "0xb5227c5ebdfc8ccfc1f62f9699f3004da2ba3cdd51fc0144c32c131183cae65a",
          "blockNumber": "0x9039e4",
          "blockTimestamp": "0x68f620bc",
          "transactionHash": "0x690716c08265a286843073efd569d7e39b3ba8f77af00cba1948d50e063409f7",
          "transactionIndex": "0x4e",
          "logIndex": "0x98",
          "removed": false
        }
      ],
      "logsBloom": "0x00000000000000000000000000000000000000004000000000000000000000000000000000000000000000000000000000000000000000000000000000000000000000000080000000000000000008000000000000000000000000000000001000000000000020000000000000000000000000000000000000000400000000000000000000000000200000000000000000000000000000000000000000000000000000000000000000000000000000000000000000000000000000000000000000000000000400000080000000000000000000000000000000000000000000000000000000000000000400000001000000001000000000000000000000000000",
      "type": "0x2",
      "transactionHash": "0x690716c08265a286843073efd569d7e39b3ba8f77af00cba1948d50e063409f7",
      "transactionIndex": "0x4e",
      "blockHash": "0xb5227c5ebdfc8ccfc1f62f9699f3004da2ba3cdd51fc0144c32c131183cae65a",
      "blockNumber": "0x9039e4",
      "gasUsed": "0xbbeb",
      "effectiveGasPrice": "0xf424a",
      "from": "0x7fc771b0675de44c4ee9e8b40b24b7a4ee2804bc",
      "to": "0xa1cece341889743b64446b6373d157360b8f6d8f",
      "contractAddress": null
    },
    {
      "status": "0x1",
      "cumulativeGasUsed": "0x9f521b",
      "logs": [
        {
          "address": "0xa1cece341889743b64446b6373d157360b8f6d8f",
          "topics": [
            "0xa8abe0398416476db5b05737cd4da3b3cbde5012d978a6a6c3fd49d321753536",
            "0x000000000000000000000000dc64a140aa3e981100a9beca4e685f962f0cf6c9",
            "0x000000000000000000000000a2f78ab2355fe2f984d808b5cee7fd0a93d5270e"
          ],
          "data": "0x",
          "blockHash": "0xb5227c5ebdfc8ccfc1f62f9699f3004da2ba3cdd51fc0144c32c131183cae65a",
          "blockNumber": "0x9039e4",
          "blockTimestamp": "0x68f620bc",
          "transactionHash": "0x06886f0c8c724ea69edb36499418fae8db4472339236392771b3a9fdcbae7904",
          "transactionIndex": "0x4f",
          "logIndex": "0x99",
          "removed": false
        }
      ],
      "logsBloom": "0x00000000000000000000000000000000000000000020000000000000000000000000000000000000400000000000000000000000000000000000000000000000000000000080000000000000000000000000000000000001000000000000000000000000000000000000000000000000000000000000000000000400000000000000000000000000200000000000000000000020000000000000000000000000000000000000000000000000080000000000000000000000000000000000000000000000000400000080000100000000000000000000000000000000000000000000000000000000000000000001000000000000000000000000000000000000",
      "type": "0x2",
      "transactionHash": "0x06886f0c8c724ea69edb36499418fae8db4472339236392771b3a9fdcbae7904",
      "transactionIndex": "0x4f",
      "blockHash": "0xb5227c5ebdfc8ccfc1f62f9699f3004da2ba3cdd51fc0144c32c131183cae65a",
      "blockNumber": "0x9039e4",
      "gasUsed": "0xbbdf",
      "effectiveGasPrice": "0xf424a",
      "from": "0x7fc771b0675de44c4ee9e8b40b24b7a4ee2804bc",
      "to": "0xa1cece341889743b64446b6373d157360b8f6d8f",
      "contractAddress": null
    },
    {
      "status": "0x1",
      "cumulativeGasUsed": "0xa00e06",
      "logs": [
        {
          "address": "0xa1cece341889743b64446b6373d157360b8f6d8f",
          "topics": [
            "0xa8abe0398416476db5b05737cd4da3b3cbde5012d978a6a6c3fd49d321753536",
            "0x0000000000000000000000005fc8d32690cc91d4c39d9d3abcbd16989f875707",
            "0x000000000000000000000000a2f78ab2355fe2f984d808b5cee7fd0a93d5270e"
          ],
          "data": "0x",
          "blockHash": "0xb5227c5ebdfc8ccfc1f62f9699f3004da2ba3cdd51fc0144c32c131183cae65a",
          "blockNumber": "0x9039e4",
          "blockTimestamp": "0x68f620bc",
          "transactionHash": "0x1a1e4da0d80d6e122d098bab0d32222595d1a2415b8a9c52392d68aa2e8bfe90",
          "transactionIndex": "0x50",
          "logIndex": "0x9a",
          "removed": false
        }
      ],
      "logsBloom": "0x00000000000000000000000000000000000000000020000000000000000000000000000000000000000000000000000040000000000000000000000000000000000000000080000000000000000000000000000000000000000000000000000000000000000000000000000000000000000000000000000000000400000000000000000000000000200000000000000000000020000000000000000000000000100000000000000000000000000000000000000000000000000000000000000000000000000400000080000100000000000000000000001000000000000000000000000000000000000000000001000000000000000000000000000000000000",
      "type": "0x2",
      "transactionHash": "0x1a1e4da0d80d6e122d098bab0d32222595d1a2415b8a9c52392d68aa2e8bfe90",
      "transactionIndex": "0x50",
      "blockHash": "0xb5227c5ebdfc8ccfc1f62f9699f3004da2ba3cdd51fc0144c32c131183cae65a",
      "blockNumber": "0x9039e4",
      "gasUsed": "0xbbeb",
      "effectiveGasPrice": "0xf424a",
      "from": "0x7fc771b0675de44c4ee9e8b40b24b7a4ee2804bc",
      "to": "0xa1cece341889743b64446b6373d157360b8f6d8f",
      "contractAddress": null
    },
    {
      "status": "0x1",
      "cumulativeGasUsed": "0xa0c9f1",
      "logs": [
        {
          "address": "0xa1cece341889743b64446b6373d157360b8f6d8f",
          "topics": [
            "0xa8abe0398416476db5b05737cd4da3b3cbde5012d978a6a6c3fd49d321753536",
            "0x0000000000000000000000000165878a594ca255338adfa4d48449f69242eb8f",
            "0x00000000000000000000000014866185b1962b63c3ea9e03bc1da838bab34c19"
          ],
          "data": "0x",
          "blockHash": "0xb5227c5ebdfc8ccfc1f62f9699f3004da2ba3cdd51fc0144c32c131183cae65a",
          "blockNumber": "0x9039e4",
          "blockTimestamp": "0x68f620bc",
          "transactionHash": "0x43dd7233412c5fcb0e84da46e51276136d3db7d223513c1525e409fb2079435b",
          "transactionIndex": "0x51",
          "logIndex": "0x9b",
          "removed": false
        }
      ],
      "logsBloom": "0x00000000000000000000000000000000000000000000000040000000000000000000000000000000000000000000000000000000000000000400000000000000000000000080000000000000000000000000000000000000000080000000000000000000000000000000000000000000000000000000000000000400000000000000000000000000200000000000000000000000000000000000000000000000000000002000000000000000000000000000000000000100000000000000000000000000000400000080000000400000000000000000000000000000000000000000000000000000000000000001000000000000000000000000000000000000",
      "type": "0x2",
      "transactionHash": "0x43dd7233412c5fcb0e84da46e51276136d3db7d223513c1525e409fb2079435b",
      "transactionIndex": "0x51",
      "blockHash": "0xb5227c5ebdfc8ccfc1f62f9699f3004da2ba3cdd51fc0144c32c131183cae65a",
      "blockNumber": "0x9039e4",
      "gasUsed": "0xbbeb",
      "effectiveGasPrice": "0xf424a",
      "from": "0x7fc771b0675de44c4ee9e8b40b24b7a4ee2804bc",
      "to": "0xa1cece341889743b64446b6373d157360b8f6d8f",
      "contractAddress": null
    }
  ],
  "libraries": [],
  "pending": [],
  "returns": {},
  "timestamp": 1760960730314,
  "chain": 11155111,
  "commit": "424cb44"
}