{
  "transactions": [
    {
      "hash": "0xb4ed760fb4ac1fa5318b658d1c1bb6162a9e40dbd134380367b0af91c7c03b4b",
      "transactionType": "CREATE",
      "contractName": "PriceOracle",
      "contractAddress": "0x467d7c464a8e8d7ceb1e9a2b63010bb7f7410a06",
      "function": null,
      "arguments": null,
      "transaction": {
        "from": "0x7fc771b0675de44c4ee9e8b40b24b7a4ee2804bc",
        "gas": "0xa6712",
        "value": "0x0",
        "input": "0x608080604052346026575f80546001600160a01b0319163317905561081d908161002b8239f35b5f80fdfe60806040526004361015610011575f80fd5b5f3560e01c806316345f18146105dd57806318a5d2dc146105505780635b6cca80146100ff5780635dc0e7f61461048e5780637215b0bf14610472578063725e6f0a1461036757806376e11286146102c65780638da5cb5b1461029f57806392aeb53a1461013f5780639dcb511a146100ff5763f2fde38b14610092575f80fd5b346100fb5760203660031901126100fb576100ab610611565b5f54906001600160a01b03821633036100ec576001600160a01b03169081156100dd576001600160a01b031916175f55005b63e6c4247b60e01b5f5260045ffd5b635fc483c560e01b5f5260045ffd5b5f80fd5b346100fb5760203660031901126100fb576001600160a01b03610120610611565b165f526001602052602060018060a01b0360405f205416604051908152f35b346100fb5760403660031901126100fb5760043567ffffffffffffffff81116100fb57610170903690600401610627565b60243567ffffffffffffffff81116100fb57610190903690600401610627565b5f549091906001600160a01b031633036100ec578183036100dd575f5b8381106101b657005b6001600160a01b036101d16101cc8387896107af565b6107d3565b16158015610281575b6100dd57806101ef6101cc60019386866107af565b828060a01b036102036101cc84898b6107af565b165f528260205260405f2090838060a01b03166bffffffffffffffffffffffff60a01b82541617905561023a6101cc8287896107af565b828060a01b0361024e6101cc8488886107af565b1690838060a01b03167fa8abe0398416476db5b05737cd4da3b3cbde5012d978a6a6c3fd49d3217535365f80a3016101ad565b506001600160a01b036102986101cc8386866107af565b16156101da565b346100fb575f3660031901126100fb575f546040516001600160a01b039091168152602090f35b346100fb5760403660031901126100fb576102df610611565b6024356001600160a01b03811691908290036100fb575f546001600160a01b031633036100ec576001600160a01b03168015801561035f575b6100dd575f81815260016020526040812080546001600160a01b031916841790557fa8abe0398416476db5b05737cd4da3b3cbde5012d978a6a6c3fd49d3217535369080a3005b508115610318565b346100fb5760203660031901126100fb576001600160a01b03610388610611565b165f908152600160205260409020546001600160a01b031680156104635760a060049160405192838092633fabe5a360e21b82525afa908115610458575f905f925f915f905f92610420575b505f851315610412576040805169ffffffffffffffffffff95861681526020810196909652850192909252606084019190915216608082015260a090f35b62bfc92160e01b5f5260045ffd5b9350505050610447915060a03d60a011610451575b61043f8183610658565b8101906106a5565b92939290856103d4565b503d610435565b6040513d5f823e3d90fd5b637e68a04560e01b5f5260045ffd5b346100fb575f3660031901126100fb576020604051610e108152f35b346100fb5760403660031901126100fb576104a7610611565b6024359069ffffffffffffffffffff82168092036100fb576001600160a01b039081165f90815260016020526040902054169081156104635760a090602460405180948193639a6fc8f560e01b835260048301525afa908115610458575f905f925f915f905f9261042057505f851315610412576040805169ffffffffffffffffffff95861681526020810196909652850192909252606084019190915216608082015260a090f35b346100fb5760603660031901126100fb57610569610611565b602435906044359060ff82168092036100fb57610585906106da565b50918281029281840414901517156105c957604d81116105c957600a0a9081156105b55760209160405191048152f35b634e487b7160e01b5f52601260045260245ffd5b634e487b7160e01b5f52601160045260245ffd5b346100fb5760203660031901126100fb57604060ff6106026105fd610611565b6106da565b83519182529091166020820152f35b600435906001600160a01b03821682036100fb57565b9181601f840112156100fb5782359167ffffffffffffffff83116100fb576020808501948460051b0101116100fb57565b90601f8019910116810190811067ffffffffffffffff82111761067a57604052565b634e487b7160e01b5f52604160045260245ffd5b519069ffffffffffffffffffff821682036100fb57565b908160a09103126100fb576106b98161068e565b916020820151916040810151916106d760806060840151930161068e565b90565b6001600160a01b039081165f908152600160205260409020541690811561046357604051633fabe5a360e21b815260a081600481865afa908115610458575f9161078b575b505f811315610412576020600491936040519283809263313ce56760e01b82525afa908115610458575f91610752575090565b90506020813d602011610783575b8161076d60209383610658565b810103126100fb575160ff811681036100fb5790565b3d9150610760565b6107a4915060a03d60a0116104515761043f8183610658565b50505090505f61071f565b91908110156107bf5760051b0190565b634e487b7160e01b5f52603260045260245ffd5b356001600160a01b03811681036100fb579056fea264697066735822122069d046b645d502f2f5d14244c68ebf468a69346d2152afb607c91737d3dcb3b064736f6c634300081e0033",
        "nonce": "0x1ba",
        "chainId": "0xaa36a7"
      },
      "additionalContracts": [],
      "isFixedGasLimit": false
    },
    {
      "hash": "0x07dcce3df1bd488b7b03f20a4947935a4eaf49aff5baa96243ee2a86373491a4",
      "transactionType": "CALL",
      "contractName": "PriceOracle",
      "contractAddress": "0x467d7c464a8e8d7ceb1e9a2b63010bb7f7410a06",
      "function": "setPriceFeed(address,address)",
      "arguments": [
        "0xBA16b15Eaac899A0FA409b71Bb8d9CE67F7AdacF",
        "0x694AA1769357215DE4FAC081bf1f309aDC325306"
      ],
      "transaction": {
        "from": "0x7fc771b0675de44c4ee9e8b40b24b7a4ee2804bc",
        "to": "0x467d7c464a8e8d7ceb1e9a2b63010bb7f7410a06",
        "gas": "0x112d4",
        "value": "0x0",
        "input": "0x76e11286000000000000000000000000ba16b15eaac899a0fa409b71bb8d9ce67f7adacf000000000000000000000000694aa1769357215de4fac081bf1f309adc325306",
        "nonce": "0x1bb",
        "chainId": "0xaa36a7"
      },
      "additionalContracts": [],
      "isFixedGasLimit": false
    },
    {
      "hash": "0xe7d5a44bf4debe7b0cfcef0f8acbcc97edb9e7e9df5760ceddd717d46783226d",
      "transactionType": "CALL",
      "contractName": "PriceOracle",
      "contractAddress": "0x467d7c464a8e8d7ceb1e9a2b63010bb7f7410a06",
      "function": "setPriceFeed(address,address)",
      "arguments": [
        "0x9F853254D864dBb98961D8Da7Fb4b5f7dC42623d",
        "0x1b44F3514812d835EB1BDB0acB33d3fA3351Ee43"
      ],
      "transaction": {
        "from": "0x7fc771b0675de44c4ee9e8b40b24b7a4ee2804bc",
        "to": "0x467d7c464a8e8d7ceb1e9a2b63010bb7f7410a06",
        "gas": "0x112d4",
        "value": "0x0",
        "input": "0x76e112860000000000000000000000009f853254d864dbb98961d8da7fb4b5f7dc42623d0000000000000000000000001b44f3514812d835eb1bdb0acb33d3fa3351ee43",
        "nonce": "0x1bc",
        "chainId": "0xaa36a7"
      },
      "additionalContracts": [],
      "isFixedGasLimit": false
    },
    {
      "hash": "0xc5b230a0306b9a5b4a6bd585ceebec83a03d66720b6ed43777a62ade3bc8df57",
      "transactionType": "CALL",
      "contractName": "PriceOracle",
      "contractAddress": "0x467d7c464a8e8d7ceb1e9a2b63010bb7f7410a06",
      "function": "setPriceFeed(address,address)",
      "arguments": [
        "0xf498F9355134d699bedf55F4efDd38f2860C46A4",
        "0xc59E3633BAAC79493d908e63626716e204A45EdF"
      ],
      "transaction": {
        "from": "0x7fc771b0675de44c4ee9e8b40b24b7a4ee2804bc",
        "to": "0x467d7c464a8e8d7ceb1e9a2b63010bb7f7410a06",
        "gas": "0x112d4",
        "value": "0x0",
        "input": "0x76e11286000000000000000000000000f498f9355134d699bedf55f4efdd38f2860c46a4000000000000000000000000c59e3633baac79493d908e63626716e204a45edf",
        "nonce": "0x1bd",
        "chainId": "0xaa36a7"
      },
      "additionalContracts": [],
      "isFixedGasLimit": false
    },
    {
      "hash": "0x7bb85f81d632fe26853d53b3fa6a2cf9afb7b70c5556e673944edcde1a4fd40e",
      "transactionType": "CALL",
      "contractName": "PriceOracle",
      "contractAddress": "0x467d7c464a8e8d7ceb1e9a2b63010bb7f7410a06",
      "function": "setPriceFeed(address,address)",
      "arguments": [
        "0xfDbF84D3CC3c7D2656d317a544ebc824E9c0301b",
        "0xA2F78ab2355fe2f984D808B5CeE7FD0A93D5270E"
      ],
      "transaction": {
        "from": "0x7fc771b0675de44c4ee9e8b40b24b7a4ee2804bc",
        "to": "0x467d7c464a8e8d7ceb1e9a2b63010bb7f7410a06",
        "gas": "0x112d4",
        "value": "0x0",
        "input": "0x76e11286000000000000000000000000fdbf84d3cc3c7d2656d317a544ebc824e9c0301b000000000000000000000000a2f78ab2355fe2f984d808b5cee7fd0a93d5270e",
        "nonce": "0x1be",
        "chainId": "0xaa36a7"
      },
      "additionalContracts": [],
      "isFixedGasLimit": false
    },
    {
      "hash": "0xdc1aa775dff2f99a0a046c179ead9f71099dfa59b8e8f6402bd4e63dbe39964a",
      "transactionType": "CALL",
      "contractName": "PriceOracle",
      "contractAddress": "0x467d7c464a8e8d7ceb1e9a2b63010bb7f7410a06",
      "function": "setPriceFeed(address,address)",
      "arguments": [
        "0x574501F4Ce1Cb0aA4D2966863ca6b83910743717",
        "0xA2F78ab2355fe2f984D808B5CeE7FD0A93D5270E"
      ],
      "transaction": {
        "from": "0x7fc771b0675de44c4ee9e8b40b24b7a4ee2804bc",
        "to": "0x467d7c464a8e8d7ceb1e9a2b63010bb7f7410a06",
        "gas": "0x112d4",
        "value": "0x0",
        "input": "0x76e11286000000000000000000000000574501f4ce1cb0aa4d2966863ca6b83910743717000000000000000000000000a2f78ab2355fe2f984d808b5cee7fd0a93d5270e",
        "nonce": "0x1bf",
        "chainId": "0xaa36a7"
      },
      "additionalContracts": [],
      "isFixedGasLimit": false
    },
    {
      "hash": "0xfa7b6282cf3e9be2dc20e818dcc826f9815f8afcfce3203d529bf47188d35dc6",
      "transactionType": "CALL",
      "contractName": "PriceOracle",
      "contractAddress": "0x467d7c464a8e8d7ceb1e9a2b63010bb7f7410a06",
      "function": "setPriceFeed(address,address)",
      "arguments": [
        "0xb9426d28209a5c5F77F74812A97f327E22628163",
        "0x14866185B1962B63C3Ea9E03Bc1da838bab34C19"
      ],
      "transaction": {
        "from": "0x7fc771b0675de44c4ee9e8b40b24b7a4ee2804bc",
        "to": "0x467d7c464a8e8d7ceb1e9a2b63010bb7f7410a06",
        "gas": "0x112d4",
        "value": "0x0",
        "input": "0x76e11286000000000000000000000000b9426d28209a5c5f77f74812a97f327e2262816300000000000000000000000014866185b1962b63c3ea9e03bc1da838bab34c19",
        "nonce": "0x1c0",
        "chainId": "0xaa36a7"
      },
      "additionalContracts": [],
      "isFixedGasLimit": false
    }
  ],
  "receipts": [
    {
      "status": "0x1",
      "cumulativeGasUsed": "0x90d0dc",
      "logs": [],
      "logsBloom": "0x00000000000000000000000000000000000000000000000000000000000000000000000000000000000000000000000000000000000000000000000000000000000000000000000000000000000000000000000000000000000000000000000000000000000000000000000000000000000000000000000000000000000000000000000000000000000000000000000000000000000000000000000000000000000000000000000000000000000000000000000000000000000000000000000000000000000000000000000000000000000000000000000000000000000000000000000000000000000000000000000000000000000000000000000000000000",
      "type": "0x2",
      "transactionHash": "0xb4ed760fb4ac1fa5318b658d1c1bb6162a9e40dbd134380367b0af91c7c03b4b",
      "transactionIndex": "0x3b",
      "blockHash": "0x30042e032635560174c3cf668bb9331f5054174f5a32e187f7c0d7c877ac2929",
      "blockNumber": "0x903a36",
      "gasUsed": "0x80084",
      "effectiveGasPrice": "0xf75ad",
      "from": "0x7fc771b0675de44c4ee9e8b40b24b7a4ee2804bc",
      "to": null,
      "contractAddress": "0x467d7c464a8e8d7ceb1e9a2b63010bb7f7410a06"
    },
    {
      "status": "0x1",
      "cumulativeGasUsed": "0x11b2d56",
      "logs": [
        {
          "address": "0x467d7c464a8e8d7ceb1e9a2b63010bb7f7410a06",
          "topics": [
            "0xa8abe0398416476db5b05737cd4da3b3cbde5012d978a6a6c3fd49d321753536",
            "0x000000000000000000000000ba16b15eaac899a0fa409b71bb8d9ce67f7adacf",
            "0x000000000000000000000000694aa1769357215de4fac081bf1f309adc325306"
          ],
          "data": "0x",
          "blockHash": "0x30042e032635560174c3cf668bb9331f5054174f5a32e187f7c0d7c877ac2929",
          "blockNumber": "0x903a36",
          "blockTimestamp": "0x68f624d0",
          "transactionHash": "0x07dcce3df1bd488b7b03f20a4947935a4eaf49aff5baa96243ee2a86373491a4",
          "transactionIndex": "0x84",
          "logIndex": "0xf4",
          "removed": false
        }
      ],
      "logsBloom": "0x00000000000000000000000000000000000000000000000000000000000000000000000000000000000000000000000000000000000000000000000000000000000000000080000000000020000000000000000000008000000000000000000000000000000000000000000000000000000008040000000000000400200000000000000000000000000000000000000000000000000000000000000000800000000000000000000000000000000000000000000000000000000000000001000000000000000000000080000000000000000000000000000000000000000000000000008000000000000000000000000000000000000000000000000002000000",
      "type": "0x2",
      "transactionHash": "0x07dcce3df1bd488b7b03f20a4947935a4eaf49aff5baa96243ee2a86373491a4",
      "transactionIndex": "0x84",
      "blockHash": "0x30042e032635560174c3cf668bb9331f5054174f5a32e187f7c0d7c877ac2929",
      "blockNumber": "0x903a36",
      "gasUsed": "0xbbeb",
      "effectiveGasPrice": "0xf75ad",
      "from": "0x7fc771b0675de44c4ee9e8b40b24b7a4ee2804bc",
      "to": "0x467d7c464a8e8d7ceb1e9a2b63010bb7f7410a06",
      "contractAddress": null
    },
    {
      "status": "0x1",
      "cumulativeGasUsed": "0x11be941",
      "logs": [
        {
          "address": "0x467d7c464a8e8d7ceb1e9a2b63010bb7f7410a06",
          "topics": [
            "0xa8abe0398416476db5b05737cd4da3b3cbde5012d978a6a6c3fd49d321753536",
            "0x0000000000000000000000009f853254d864dbb98961d8da7fb4b5f7dc42623d",
            "0x0000000000000000000000001b44f3514812d835eb1bdb0acb33d3fa3351ee43"
          ],
          "data": "0x",
          "blockHash": "0x30042e032635560174c3cf668bb9331f5054174f5a32e187f7c0d7c877ac2929",
          "blockNumber": "0x903a36",
          "blockTimestamp": "0x68f624d0",
          "transactionHash": "0xe7d5a44bf4debe7b0cfcef0f8acbcc97edb9e7e9df5760ceddd717d46783226d",
          "transactionIndex": "0x85",
          "logIndex": "0xf5",
          "removed": false
        }
      ],
      "logsBloom": "0x00000000000000000000000010000000000000000000000000000000000000000000000000000000000000000000000000000000004000000000000000000000000000000080000000000020020000000000000000000000000000000000000000000000000000000000000000000000000000000000000000000400200000000000000000000000000000000000000000000000000000000000000000800000000000000000000000000000000000000000000840000000000000000000000000000000000000000080000000000000000000000000001000000000000000000000000000000000000000000000000000000000000000000000000000000000",
      "type": "0x2",
      "transactionHash": "0xe7d5a44bf4debe7b0cfcef0f8acbcc97edb9e7e9df5760ceddd717d46783226d",
      "transactionIndex": "0x85",
      "blockHash": "0x30042e032635560174c3cf668bb9331f5054174f5a32e187f7c0d7c877ac2929",
      "blockNumber": "0x903a36",
      "gasUsed": "0xbbeb",
      "effectiveGasPrice": "0xf75ad",
      "from": "0x7fc771b0675de44c4ee9e8b40b24b7a4ee2804bc",
      "to": "0x467d7c464a8e8d7ceb1e9a2b63010bb7f7410a06",
      "contractAddress": null
    },
    {
      "status": "0x1",
      "cumulativeGasUsed": "0x11ca52c",
      "logs": [
        {
          "address": "0x467d7c464a8e8d7ceb1e9a2b63010bb7f7410a06",
          "topics": [
            "0xa8abe0398416476db5b05737cd4da3b3cbde5012d978a6a6c3fd49d321753536",
            "0x000000000000000000000000f498f9355134d699bedf55f4efdd38f2860c46a4",
            "0x000000000000000000000000c59e3633baac79493d908e63626716e204a45edf"
          ],
          "data": "0x",
          "blockHash": "0x30042e032635560174c3cf668bb9331f5054174f5a32e187f7c0d7c877ac2929",
          "blockNumber": "0x903a36",
          "blockTimestamp": "0x68f624d0",
          "transactionHash": "0xc5b230a0306b9a5b4a6bd585ceebec83a03d66720b6ed43777a62ade3bc8df57",
          "transactionIndex": "0x86",
          "logIndex": "0xf6",
          "removed": false
        }
      ],
      "logsBloom": "0x00000000000000000000000000000000000000004000000000000000000000000000000000000000000000000000000000000000000000000000000000000000000000000080000000000020000000000000000000000002000000000000001000000000000020000000000000000000000000000000000000000400200000000000000000000000000000000000000000000000000000000000000000800000000000000000000000000000000000000000000000000000000000000000000000000000000000000080000000000080000000000000000000000000000000000080000000000000000000000000000000000000000000000000000000000000",
      "type": "0x2",
      "transactionHash": "0xc5b230a0306b9a5b4a6bd585ceebec83a03d66720b6ed43777a62ade3bc8df57",
      "transactionIndex": "0x86",
      "blockHash": "0x30042e032635560174c3cf668bb9331f5054174f5a32e187f7c0d7c877ac2929",
      "blockNumber": "0x903a36",
      "gasUsed": "0xbbeb",
      "effectiveGasPrice": "0xf75ad",
      "from": "0x7fc771b0675de44c4ee9e8b40b24b7a4ee2804bc",
      "to": "0x467d7c464a8e8d7ceb1e9a2b63010bb7f7410a06",
      "contractAddress": null
    },
    {
      "status": "0x1",
      "cumulativeGasUsed": "0x11d6117",
      "logs": [
        {
          "address": "0x467d7c464a8e8d7ceb1e9a2b63010bb7f7410a06",
          "topics": [
            "0xa8abe0398416476db5b05737cd4da3b3cbde5012d978a6a6c3fd49d321753536",
            "0x000000000000000000000000fdbf84d3cc3c7d2656d317a544ebc824e9c0301b",
            "0x000000000000000000000000a2f78ab2355fe2f984d808b5cee7fd0a93d5270e"
          ],
          "data": "0x",
          "blockHash": "0x30042e032635560174c3cf668bb9331f5054174f5a32e187f7c0d7c877ac2929",
          "blockNumber": "0x903a36",
          "blockTimestamp": "0x68f624d0",
          "transactionHash": "0x7bb85f81d632fe26853d53b3fa6a2cf9afb7b70c5556e673944edcde1a4fd40e",
          "transactionIndex": "0x87",
          "logIndex": "0xf7",
          "removed": false
        }
      ],
      "logsBloom": "0x00000000000000000000000000000000000000000020000000000000000000000000000000000000000000000000000000000000000000000000000000000000000080000080000000000020000000000000000000000000000000000000000000000000000000000000000000000000000000000000000000000400200000000000000000000000000000000000000000000020000000000000000000800000000100200000000000000000000000000000000000000000000000000000000000000000000000000080000100000000000000000000000000000000000000000000000000000000000000000000000000000000000000000000000000000000",
      "type": "0x2",
      "transactionHash": "0x7bb85f81d632fe26853d53b3fa6a2cf9afb7b70c5556e673944edcde1a4fd40e",
      "transactionIndex": "0x87",
      "blockHash": "0x30042e032635560174c3cf668bb9331f5054174f5a32e187f7c0d7c877ac2929",
      "blockNumber": "0x903a36",
      "gasUsed": "0xbbeb",
      "effectiveGasPrice": "0xf75ad",
      "from": "0x7fc771b0675de44c4ee9e8b40b24b7a4ee2804bc",
      "to": "0x467d7c464a8e8d7ceb1e9a2b63010bb7f7410a06",
      "contractAddress": null
    },
    {
      "status": "0x1",
      "cumulativeGasUsed": "0x11e1d02",
      "logs": [
        {
          "address": "0x467d7c464a8e8d7ceb1e9a2b63010bb7f7410a06",
          "topics": [
            "0xa8abe0398416476db5b05737cd4da3b3cbde5012d978a6a6c3fd49d321753536",
            "0x000000000000000000000000574501f4ce1cb0aa4d2966863ca6b83910743717",
            "0x000000000000000000000000a2f78ab2355fe2f984d808b5cee7fd0a93d5270e"
          ],
          "data": "0x",
          "blockHash": "0x30042e032635560174c3cf668bb9331f5054174f5a32e187f7c0d7c877ac2929",
          "blockNumber": "0x903a36",
          "blockTimestamp": "0x68f624d0",
          "transactionHash": "0xdc1aa775dff2f99a0a046c179ead9f71099dfa59b8e8f6402bd4e63dbe39964a",
          "transactionIndex": "0x88",
          "logIndex": "0xf8",
          "removed": false
        }
      ],
      "logsBloom": "0x00000000000000000000000000000000000000000020000000000000000000000000000000000000000000000000000000000000000000000000000000000000000000000080000000000020000000000000000000000000000000000000000000000000000000000000000000000000000000000000000000000400200000000000000000000000004000000000000000000020000000000000000000800000000000000000000000000000000000000000000000000000000000000000000000000000000000000080000100000000000000000000000000000000000000000000000000080004000000000000000000000000000000000000000000000000",
      "type": "0x2",
      "transactionHash": "0xdc1aa775dff2f99a0a046c179ead9f71099dfa59b8e8f6402bd4e63dbe39964a",
      "transactionIndex": "0x88",
      "blockHash": "0x30042e032635560174c3cf668bb9331f5054174f5a32e187f7c0d7c877ac2929",
      "blockNumber": "0x903a36",
      "gasUsed": "0xbbeb",
      "effectiveGasPrice": "0xf75ad",
      "from": "0x7fc771b0675de44c4ee9e8b40b24b7a4ee2804bc",
      "to": "0x467d7c464a8e8d7ceb1e9a2b63010bb7f7410a06",
      "contractAddress": null
    },
    {
      "status": "0x1",
      "cumulativeGasUsed": "0x11ed8ed",
      "logs": [
        {
          "address": "0x467d7c464a8e8d7ceb1e9a2b63010bb7f7410a06",
          "topics": [
            "0xa8abe0398416476db5b05737cd4da3b3cbde5012d978a6a6c3fd49d321753536",
            "0x000000000000000000000000b9426d28209a5c5f77f74812a97f327e22628163",
            "0x00000000000000000000000014866185b1962b63c3ea9e03bc1da838bab34c19"
          ],
          "data": "0x",
          "blockHash": "0x30042e032635560174c3cf668bb9331f5054174f5a32e187f7c0d7c877ac2929",
          "blockNumber": "0x903a36",
          "blockTimestamp": "0x68f624d0",
          "transactionHash": "0xfa7b6282cf3e9be2dc20e818dcc826f9815f8afcfce3203d529bf47188d35dc6",
          "transactionIndex": "0x89",
          "logIndex": "0xf9",
          "removed": false
        }
      ],
      "logsBloom": "0x00000000000000000000000000000000000000000000000000000000000000000000000000000000000000000000000000000000000000000000000000000000000000000080000000000020000000000000000000000000000080000000000000000000000000000000000000000000000000000000000000000400200000000000000000000000000000000000000000000000000000000000000000800000000000002000000000000000000000000000000000080000000000000000000000000000000000000080000000400100000000000000000000000000000000000000000000000000000000000000008000000000000000000000000000000000",
      "type": "0x2",
      "transactionHash": "0xfa7b6282cf3e9be2dc20e818dcc826f9815f8afcfce3203d529bf47188d35dc6",
      "transactionIndex": "0x89",
      "blockHash": "0x30042e032635560174c3cf668bb9331f5054174f5a32e187f7c0d7c877ac2929",
      "blockNumber": "0x903a36",
      "gasUsed": "0xbbeb",
      "effectiveGasPrice": "0xf75ad",
      "from": "0x7fc771b0675de44c4ee9e8b40b24b7a4ee2804bc",
      "to": "0x467d7c464a8e8d7ceb1e9a2b63010bb7f7410a06",
      "contractAddress": null
    }
  ],
  "libraries": [],
  "pending": [],
  "returns": {},
  "timestamp": 1760961747502,
  "chain": 11155111,
  "commit": "424cb44"
}